{
  "contractName": "backend",
  "abi": [
    {
      "inputs": [
        {
          "internalType": "uint256",
          "name": "_threshold",
          "type": "uint256"
        },
        {
          "internalType": "uint256",
          "name": "_locktime",
          "type": "uint256"
        },
        {
          "internalType": "uint256",
          "name": "_quorum",
          "type": "uint256"
        },
        {
          "internalType": "address",
          "name": "_bond",
          "type": "address"
        }
      ],
      "stateMutability": "nonpayable",
      "type": "constructor"
    },
    {
      "anonymous": false,
      "inputs": [
        {
          "indexed": false,
          "internalType": "uint256",
          "name": "newLocktime",
          "type": "uint256"
        }
      ],
      "name": "LocktimeChanged",
      "type": "event"
    },
    {
      "anonymous": false,
      "inputs": [
        {
          "indexed": false,
          "internalType": "string",
          "name": "id",
          "type": "string"
        }
      ],
      "name": "ModuleAdded",
      "type": "event"
    },
    {
      "anonymous": false,
      "inputs": [
        {
          "indexed": false,
          "internalType": "string",
          "name": "id",
          "type": "string"
        }
      ],
      "name": "ModuleRemoved",
      "type": "event"
    },
    {
      "anonymous": false,
      "inputs": [
        {
          "indexed": true,
          "internalType": "address",
          "name": "previousOwner",
          "type": "address"
        },
        {
          "indexed": true,
          "internalType": "address",
          "name": "newOwner",
          "type": "address"
        }
      ],
      "name": "OwnershipTransferred",
      "type": "event"
    },
    {
      "anonymous": false,
      "inputs": [
        {
          "indexed": false,
          "internalType": "string",
          "name": "id",
          "type": "string"
        }
      ],
      "name": "ProposalAccepted",
      "type": "event"
    },
    {
      "anonymous": false,
      "inputs": [
        {
          "indexed": false,
          "internalType": "string",
          "name": "id",
          "type": "string"
        }
      ],
      "name": "ProposalRejected",
      "type": "event"
    },
    {
      "anonymous": false,
      "inputs": [
        {
          "indexed": false,
          "internalType": "uint256",
          "name": "newQuorum",
          "type": "uint256"
        }
      ],
      "name": "QuorumChanged",
      "type": "event"
    },
    {
      "anonymous": false,
      "inputs": [
        {
          "indexed": false,
          "internalType": "address",
          "name": "sender",
          "type": "address"
        }
      ],
      "name": "StakeSubmitted",
      "type": "event"
    },
    {
      "anonymous": false,
      "inputs": [
        {
          "indexed": false,
          "internalType": "uint256",
          "name": "newThreshold",
          "type": "uint256"
        }
      ],
      "name": "ThresholdChanged",
      "type": "event"
    },
    {
      "anonymous": false,
      "inputs": [
        {
          "indexed": false,
          "internalType": "address",
          "name": "sender",
          "type": "address"
        },
        {
          "indexed": false,
          "internalType": "string",
          "name": "id",
          "type": "string"
        },
        {
          "indexed": false,
          "internalType": "bool",
          "name": "value",
          "type": "bool"
        }
      ],
      "name": "VoteSubmitted",
      "type": "event"
    },
    {
      "anonymous": false,
      "inputs": [
        {
          "indexed": false,
          "internalType": "address",
          "name": "thewinner",
          "type": "address"
        }
      ],
      "name": "Winner",
      "type": "event"
    },
    {
      "inputs": [],
      "name": "owner",
      "outputs": [
        {
          "internalType": "address",
          "name": "",
          "type": "address"
        }
      ],
      "stateMutability": "view",
      "type": "function",
      "constant": true
    },
    {
      "inputs": [
        {
          "internalType": "bytes32",
          "name": "requestId",
          "type": "bytes32"
        },
        {
          "internalType": "uint256",
          "name": "randomness",
          "type": "uint256"
        }
      ],
      "name": "rawFulfillRandomness",
      "outputs": [],
      "stateMutability": "nonpayable",
      "type": "function"
    },
    {
      "inputs": [],
      "name": "renounceOwnership",
      "outputs": [],
      "stateMutability": "nonpayable",
      "type": "function"
    },
    {
      "inputs": [
        {
          "internalType": "address",
          "name": "newOwner",
          "type": "address"
        }
      ],
      "name": "transferOwnership",
      "outputs": [],
      "stateMutability": "nonpayable",
      "type": "function"
    },
    {
      "inputs": [
        {
          "internalType": "contract DaobaoToken",
          "name": "_minting",
          "type": "address"
        }
      ],
      "name": "mintingContract",
      "outputs": [],
      "stateMutability": "nonpayable",
      "type": "function"
    },
    {
      "inputs": [],
      "name": "stake",
      "outputs": [],
      "stateMutability": "payable",
      "type": "function",
      "payable": true
    },
    {
      "inputs": [],
      "name": "withdraw",
      "outputs": [],
      "stateMutability": "nonpayable",
      "type": "function"
    },
    {
      "inputs": [
        {
          "internalType": "string",
          "name": "id",
          "type": "string"
        },
        {
          "internalType": "string",
          "name": "_data",
          "type": "string"
        },
        {
          "internalType": "enum backend.Indicator",
          "name": "_indicator",
          "type": "uint8"
        }
      ],
      "name": "submitModuleProposal",
      "outputs": [],
      "stateMutability": "nonpayable",
      "type": "function"
    },
    {
      "inputs": [
        {
          "internalType": "string",
          "name": "id",
          "type": "string"
        },
        {
          "internalType": "uint256",
          "name": "_data",
          "type": "uint256"
        },
        {
          "internalType": "enum backend.Indicator",
          "name": "_indicator",
          "type": "uint8"
        }
      ],
      "name": "submitSettingsProposal",
      "outputs": [],
      "stateMutability": "nonpayable",
      "type": "function"
    },
    {
      "inputs": [
        {
          "internalType": "string",
          "name": "id",
          "type": "string"
        },
        {
          "internalType": "bool",
          "name": "value",
          "type": "bool"
        }
      ],
      "name": "vote",
      "outputs": [],
      "stateMutability": "nonpayable",
      "type": "function"
    },
    {
      "inputs": [
        {
          "internalType": "string",
          "name": "id",
          "type": "string"
        }
      ],
      "name": "decideProposal",
      "outputs": [],
      "stateMutability": "nonpayable",
      "type": "function"
    },
    {
      "inputs": [],
      "name": "getRandomNumber",
      "outputs": [
        {
          "internalType": "bytes32",
          "name": "requestID",
          "type": "bytes32"
        }
      ],
      "stateMutability": "nonpayable",
      "type": "function"
    },
    {
      "inputs": [],
      "name": "decideWinner",
      "outputs": [],
      "stateMutability": "nonpayable",
      "type": "function"
    },
    {
      "inputs": [],
      "name": "withdrawLink",
      "outputs": [],
      "stateMutability": "nonpayable",
      "type": "function"
    },
    {
      "inputs": [],
      "name": "getLiveProposals",
      "outputs": [
        {
          "internalType": "string[]",
          "name": "",
          "type": "string[]"
        }
      ],
      "stateMutability": "view",
      "type": "function",
      "constant": true
    },
    {
      "inputs": [],
      "name": "getProposalsHistory",
      "outputs": [
        {
          "internalType": "string[]",
          "name": "",
          "type": "string[]"
        }
      ],
      "stateMutability": "view",
      "type": "function",
      "constant": true
    },
    {
      "inputs": [],
      "name": "getActiveProposals",
      "outputs": [
        {
          "internalType": "string[]",
          "name": "",
          "type": "string[]"
        }
      ],
      "stateMutability": "view",
      "type": "function",
      "constant": true
    },
    {
      "inputs": [
        {
          "internalType": "address",
          "name": "addy",
          "type": "address"
        },
        {
          "internalType": "string",
          "name": "str",
          "type": "string"
        }
      ],
      "name": "getVoted",
      "outputs": [
        {
          "internalType": "bool",
          "name": "",
          "type": "bool"
        }
      ],
      "stateMutability": "view",
      "type": "function",
      "constant": true
    },
    {
      "inputs": [
        {
          "internalType": "string",
          "name": "str",
          "type": "string"
        }
      ],
      "name": "getProposalInfo",
      "outputs": [
        {
          "components": [
            {
              "internalType": "string",
              "name": "data",
              "type": "string"
            },
            {
              "internalType": "uint256",
              "name": "data1",
              "type": "uint256"
            },
            {
              "internalType": "enum backend.Indicator",
              "name": "indicator",
              "type": "uint8"
            },
            {
              "internalType": "uint256",
              "name": "end",
              "type": "uint256"
            },
            {
              "internalType": "address[]",
              "name": "voters",
              "type": "address[]"
            },
            {
              "internalType": "enum backend.Status",
              "name": "status",
              "type": "uint8"
            },
            {
              "internalType": "uint256",
              "name": "forvotes",
              "type": "uint256"
            },
            {
              "internalType": "uint256",
              "name": "totalvotes",
              "type": "uint256"
            },
            {
              "internalType": "uint256",
              "name": "quorumsnapshot",
              "type": "uint256"
            }
          ],
          "internalType": "struct backend.Proposal",
          "name": "",
          "type": "tuple"
        }
      ],
      "stateMutability": "view",
      "type": "function",
      "constant": true
    },
    {
      "inputs": [
        {
          "internalType": "string",
          "name": "str",
          "type": "string"
        }
      ],
      "name": "getPresenceCheck",
      "outputs": [
        {
          "internalType": "bool",
          "name": "",
          "type": "bool"
        }
      ],
      "stateMutability": "view",
      "type": "function",
      "constant": true
    },
    {
      "inputs": [
        {
          "internalType": "string",
          "name": "str",
          "type": "string"
        }
      ],
      "name": "getArrayIndex",
      "outputs": [
        {
          "internalType": "uint256",
          "name": "",
          "type": "uint256"
        }
      ],
      "stateMutability": "view",
      "type": "function",
      "constant": true
    },
    {
      "inputs": [
        {
          "internalType": "address",
          "name": "addy",
          "type": "address"
        }
      ],
      "name": "getMembers",
      "outputs": [
        {
          "internalType": "bool",
          "name": "",
          "type": "bool"
        }
      ],
      "stateMutability": "view",
      "type": "function",
      "constant": true
    },
    {
      "inputs": [
        {
          "internalType": "address",
          "name": "addy",
          "type": "address"
        }
      ],
      "name": "getAmountStaked",
      "outputs": [
        {
          "internalType": "uint256",
          "name": "",
          "type": "uint256"
        }
      ],
      "stateMutability": "view",
      "type": "function",
      "constant": true
    },
    {
      "inputs": [
        {
          "internalType": "uint256",
          "name": "num",
          "type": "uint256"
        }
      ],
      "name": "UIDtoProposalName",
      "outputs": [
        {
          "internalType": "string",
          "name": "",
          "type": "string"
        }
      ],
      "stateMutability": "view",
      "type": "function",
      "constant": true
    }
  ],
  "bytecode": "0x60c06040527386652c1301843b4e06fbfbbdaa6849266fb2b5e7600960006101000a81548173ffffffffffffffffffffffffffffffffffffffff021916908373ffffffffffffffffffffffffffffffffffffffff1602179055506000600a553480156200006b57600080fd5b5060405162007ff638038062007ff68339818101604052810190620000919190620003ea565b738c7382f9d8f56b33781fe506e897a4f1e2d1725573326c977e6efc84e512bb9c30f76e30c160ed06fb620000db620000cf6200026b60201b60201c565b6200027360201b60201c565b8173ffffffffffffffffffffffffffffffffffffffff1660a08173ffffffffffffffffffffffffffffffffffffffff16815250508073ffffffffffffffffffffffffffffffffffffffff1660808173ffffffffffffffffffffffffffffffffffffffff16815250505050670de0b6b3a7640000846200015b91906200048b565b600c8190555082600d819055506064826200017791906200051b565b600e819055507f6e75b569a01ef56d18cab6a8e71e6600d6ce853834d4a5748b720d06f878b3a460001b601181905550655af3107a4000601081905550604051620001c29062000337565b604051809103906000f080158015620001df573d6000803e3d6000fd5b50601260006101000a81548173ffffffffffffffffffffffffffffffffffffffff021916908373ffffffffffffffffffffffffffffffffffffffff16021790555080600960006101000a81548173ffffffffffffffffffffffffffffffffffffffff021916908373ffffffffffffffffffffffffffffffffffffffff1602179055505050505062000553565b600033905090565b60008060009054906101000a900473ffffffffffffffffffffffffffffffffffffffff169050816000806101000a81548173ffffffffffffffffffffffffffffffffffffffff021916908373ffffffffffffffffffffffffffffffffffffffff1602179055508173ffffffffffffffffffffffffffffffffffffffff168173ffffffffffffffffffffffffffffffffffffffff167f8be0079c531659141344cd1fd0a4f28419497f9722a3daafe3b4186f6b6457e060405160405180910390a35050565b612aaf806200554783390190565b600080fd5b6000819050919050565b6200035f816200034a565b81146200036b57600080fd5b50565b6000815190506200037f8162000354565b92915050565b600073ffffffffffffffffffffffffffffffffffffffff82169050919050565b6000620003b28262000385565b9050919050565b620003c481620003a5565b8114620003d057600080fd5b50565b600081519050620003e481620003b9565b92915050565b6000806000806080858703121562000407576200040662000345565b5b600062000417878288016200036e565b94505060206200042a878288016200036e565b93505060406200043d878288016200036e565b92505060606200045087828801620003d3565b91505092959194509250565b7f4e487b7100000000000000000000000000000000000000000000000000000000600052601160045260246000fd5b600062000498826200034a565b9150620004a5836200034a565b9250817fffffffffffffffffffffffffffffffffffffffffffffffffffffffffffffffff0483118215151615620004e157620004e06200045c565b5b828202905092915050565b7f4e487b7100000000000000000000000000000000000000000000000000000000600052601260045260246000fd5b600062000528826200034a565b915062000535836200034a565b925082620005485762000547620004ec565b5b828204905092915050565b60805160a051614fb262000595600039600081816120f50152613183015260008181611a8f01528181611acc0152818161293e01526131470152614fb26000f3fe60806040526004361061014b5760003560e01c80638284ea2d116100b6578063aa6386221161006f578063aa63862214610435578063b63e1e3614610460578063bfa0bea314610489578063d8a9afb2146104c6578063dbdff2c114610503578063f2fde38b1461052e5761014b565b80638284ea2d146103395780638da5cb5b146103645780638dc654a21461038f5780638e822ac4146103a65780639183dcba146103e357806394985ddd1461040c5761014b565b80635104c819116101085780635104c8191461022b5780635584c4f91461026857806367f8b6ea14610293578063715018a6146102bc57806378544629146102d35780637d7916e7146103105761014b565b80630d380a761461015057806312edb3c51461018d57806325402e74146101ca57806327d3410c146101e15780633a4b66f11461020a5780633ccfd60b14610214575b600080fd5b34801561015c57600080fd5b5061017760048036038101906101729190613692565b610557565b60405161018491906136f8565b60405180910390f35b34801561019957600080fd5b506101b460048036038101906101af9190613692565b610582565b6040516101c1919061372e565b60405180910390f35b3480156101d657600080fd5b506101df6105ba565b005b3480156101ed57600080fd5b5061020860048036038101906102039190613775565b6108d4565b005b610212610c6b565b005b34801561022057600080fd5b50610229610f45565b005b34801561023757600080fd5b50610252600480360381019061024d9190613833565b6111ea565b60405161025f91906136f8565b60405180910390f35b34801561027457600080fd5b5061027d611233565b60405161028a91906139bb565b60405180910390f35b34801561029f57600080fd5b506102ba60048036038101906102b59190613a2e565b61130c565b005b3480156102c857600080fd5b506102d1611771565b005b3480156102df57600080fd5b506102fa60048036038101906102f59190613833565b6117f9565b604051610307919061372e565b60405180910390f35b34801561031c57600080fd5b5061033760048036038101906103329190613ae0565b61184f565b005b34801561034557600080fd5b5061034e61190f565b60405161035b91906139bb565b60405180910390f35b34801561037057600080fd5b506103796119e8565b6040516103869190613b1c565b60405180910390f35b34801561039b57600080fd5b506103a4611a11565b005b3480156103b257600080fd5b506103cd60048036038101906103c89190613b37565b611bc7565b6040516103da9190613bae565b60405180910390f35b3480156103ef57600080fd5b5061040a60048036038101906104059190613692565b611c6c565b005b34801561041857600080fd5b50610433600480360381019061042e9190613c06565b6120f3565b005b34801561044157600080fd5b5061044a61218f565b60405161045791906139bb565b60405180910390f35b34801561046c57600080fd5b5061048760048036038101906104829190613d76565b612268565b005b34801561049557600080fd5b506104b060048036038101906104ab9190613e06565b6126bd565b6040516104bd919061372e565b60405180910390f35b3480156104d257600080fd5b506104ed60048036038101906104e89190613692565b612733565b6040516104fa91906140be565b60405180910390f35b34801561050f57600080fd5b50610518612937565b60405161052591906140ef565b60405180910390f35b34801561053a57600080fd5b5061055560048036038101906105509190613833565b612a2a565b005b60006005838360405161056b92919061413a565b908152602001604051809103902054905092915050565b60006004838360405161059692919061413a565b908152602001604051809103902060009054906101000a900460ff16905092915050565b60011515600660003373ffffffffffffffffffffffffffffffffffffffff1673ffffffffffffffffffffffffffffffffffffffff16815260200190815260200160002060009054906101000a900460ff1615151461064d576040517f08c379a00000000000000000000000000000000000000000000000000000000081526004016106449061419f565b60405180910390fd5b6000600381111561066157610660613e75565b5b6003601360405161067291906142b4565b908152602001604051809103902060050160009054906101000a900460ff1660038111156106a3576106a2613e75565b5b14806107025750600160038111156106be576106bd613e75565b5b600360136040516106cf91906142b4565b908152602001604051809103902060050160009054906101000a900460ff166003811115610700576106ff613e75565b5b145b610741576040517f08c379a000000000000000000000000000000000000000000000000000000000815260040161073890614317565b60405180910390fd5b60001515601560009054906101000a900460ff16151514610797576040517f08c379a000000000000000000000000000000000000000000000000000000000815260040161078e90614383565b60405180910390fd5b601e6014546107a691906143d2565b42116107e7576040517f08c379a00000000000000000000000000000000000000000000000000000000081526004016107de9061449a565b60405180910390fd5b6001601560006101000a81548160ff02191690831515021790555060006003601360405161081591906142b4565b908152602001604051809103902060070154600f5461083491906144e9565b905060006003601360405161084991906142b4565b9081526020016040518091039020600401828154811061086c5761086b61451a565b5b9060005260206000200160009054906101000a900473ffffffffffffffffffffffffffffffffffffffff1690507f745c90b656b4aafe296c8ca35aeacfe56cb96c90e1d320e5da643fff1051b6c0816040516108c89190613b1c565b60405180910390a15050565b60011515600660003373ffffffffffffffffffffffffffffffffffffffff1673ffffffffffffffffffffffffffffffffffffffff16815260200190815260200160002060009054906101000a900460ff16151514610967576040517f08c379a000000000000000000000000000000000000000000000000000000000815260040161095e9061419f565b60405180910390fd5b60001515600260003373ffffffffffffffffffffffffffffffffffffffff1673ffffffffffffffffffffffffffffffffffffffff16815260200190815260200160002084846040516109ba92919061413a565b908152602001604051809103902060009054906101000a900460ff16151514610a18576040517f08c379a0000000000000000000000000000000000000000000000000000000008152600401610a0f90614595565b60405180910390fd5b60026003811115610a2c57610a2b613e75565b5b60038484604051610a3e92919061413a565b908152602001604051809103902060050160009054906101000a900460ff166003811115610a6f57610a6e613e75565b5b14610aaf576040517f08c379a0000000000000000000000000000000000000000000000000000000008152600401610aa690614601565b60405180910390fd5b6001600260003373ffffffffffffffffffffffffffffffffffffffff1673ffffffffffffffffffffffffffffffffffffffff1681526020019081526020016000208484604051610b0092919061413a565b908152602001604051809103902060006101000a81548160ff02191690831515021790555060038383604051610b3792919061413a565b90815260200160405180910390206007016000815480929190610b5990614621565b9190505550600115158115151415610ba55760038383604051610b7d92919061413a565b90815260200160405180910390206006016000815480929190610b9f90614621565b91905055505b60038383604051610bb792919061413a565b9081526020016040518091039020600401339080600181540180825580915050600190039060005260206000200160009091909190916101000a81548173ffffffffffffffffffffffffffffffffffffffff021916908373ffffffffffffffffffffffffffffffffffffffff1602179055507f0529087c36de8f15095d209d48987609490500e4e44a77325d36be2469dfe8d033848484604051610c5e9493929190614697565b60405180910390a1505050565b60001515600660003373ffffffffffffffffffffffffffffffffffffffff1673ffffffffffffffffffffffffffffffffffffffff16815260200190815260200160002060009054906101000a900460ff16151514610cfe576040517f08c379a0000000000000000000000000000000000000000000000000000000008152600401610cf590614723565b60405180910390fd5b600960009054906101000a900473ffffffffffffffffffffffffffffffffffffffff1673ffffffffffffffffffffffffffffffffffffffff166323b872dd3330600c546040518463ffffffff1660e01b8152600401610d5f93929190614743565b6020604051808303816000875af1158015610d7e573d6000803e3d6000fd5b505050506040513d601f19601f82011682018060405250810190610da2919061478f565b610de1576040517f08c379a0000000000000000000000000000000000000000000000000000000008152600401610dd890614808565b60405180910390fd5b600c54600760003373ffffffffffffffffffffffffffffffffffffffff1673ffffffffffffffffffffffffffffffffffffffff168152602001908152602001600020819055506001600660003373ffffffffffffffffffffffffffffffffffffffff1673ffffffffffffffffffffffffffffffffffffffff16815260200190815260200160002060006101000a81548160ff021916908315150217905550601260009054906101000a900473ffffffffffffffffffffffffffffffffffffffff1673ffffffffffffffffffffffffffffffffffffffff16631066c7b0336040518263ffffffff1660e01b8152600401610eda9190613b1c565b600060405180830381600087803b158015610ef457600080fd5b505af1158015610f08573d6000803e3d6000fd5b505050507f5b75eea3e48421efa7c3c8b7804f500952cb646934ce125552cdeb66ce0d89f033604051610f3b9190613b1c565b60405180910390a1565b60011515600660003373ffffffffffffffffffffffffffffffffffffffff1673ffffffffffffffffffffffffffffffffffffffff16815260200190815260200160002060009054906101000a900460ff16151514610fd8576040517f08c379a0000000000000000000000000000000000000000000000000000000008152600401610fcf9061419f565b60405180910390fd5b601260009054906101000a900473ffffffffffffffffffffffffffffffffffffffff1673ffffffffffffffffffffffffffffffffffffffff16630481b7c8336040518263ffffffff1660e01b81526004016110339190613b1c565b600060405180830381600087803b15801561104d57600080fd5b505af1158015611061573d6000803e3d6000fd5b505050506000600660003373ffffffffffffffffffffffffffffffffffffffff1673ffffffffffffffffffffffffffffffffffffffff16815260200190815260200160002060006101000a81548160ff0219169083151502179055506000600760003373ffffffffffffffffffffffffffffffffffffffff1673ffffffffffffffffffffffffffffffffffffffff1681526020019081526020016000205490506000600760003373ffffffffffffffffffffffffffffffffffffffff1673ffffffffffffffffffffffffffffffffffffffff16815260200190815260200160002081905550600960009054906101000a900473ffffffffffffffffffffffffffffffffffffffff1673ffffffffffffffffffffffffffffffffffffffff1663a9059cbb33836040518363ffffffff1660e01b81526004016111a3929190614828565b6020604051808303816000875af11580156111c2573d6000803e3d6000fd5b505050506040513d601f19601f820116820180604052508101906111e6919061478f565b5050565b6000600760008373ffffffffffffffffffffffffffffffffffffffff1673ffffffffffffffffffffffffffffffffffffffff168152602001908152602001600020549050919050565b60606016805480602002602001604051908101604052809291908181526020016000905b82821015611303578382906000526020600020018054611276906141ee565b80601f01602080910402602001604051908101604052809291908181526020018280546112a2906141ee565b80156112ef5780601f106112c4576101008083540402835291602001916112ef565b820191906000526020600020905b8154815290600101906020018083116112d257829003601f168201915b505050505081526020019060010190611257565b50505050905090565b60011515600660003373ffffffffffffffffffffffffffffffffffffffff1673ffffffffffffffffffffffffffffffffffffffff16815260200190815260200160002060009054906101000a900460ff1615151461139f576040517f08c379a00000000000000000000000000000000000000000000000000000000081526004016113969061419f565b60405180910390fd5b6003600b54106113e4576040517f08c379a00000000000000000000000000000000000000000000000000000000081526004016113db9061489d565b60405180910390fd5b60008160048111156113f9576113f8613e75565b5b60ff16148061141d5750600181600481111561141857611417613e75565b5b60ff16145b8061143d5750600281600481111561143857611437613e75565b5b60ff16145b61147c576040517f08c379a000000000000000000000000000000000000000000000000000000000815260040161147390614909565b60405180910390fd5b600015156004858560405161149292919061413a565b908152602001604051809103902060009054906101000a900460ff161515146114f0576040517f08c379a00000000000000000000000000000000000000000000000000000000081526004016114e7906149c1565b60405180910390fd5b60016004858560405161150492919061413a565b908152602001604051809103902060006101000a81548160ff0219169083151502179055506000600d54603c61153a91906149e1565b4261154591906143d2565b90506000600e549050601686869091806001815401808255809150506001900390600052602060002001600090919290919290919290919250919061158b9291906133b3565b50836003878760405161159f92919061413a565b90815260200160405180910390206001018190555080600387876040516115c792919061413a565b90815260200160405180910390206008018190555081600387876040516115ef92919061413a565b90815260200160405180910390206003018190555060026003878760405161161892919061413a565b908152602001604051809103902060050160006101000a81548160ff0219169083600381111561164b5761164a613e75565b5b0217905550826003878760405161166392919061413a565b908152602001604051809103902060020160006101000a81548160ff0219169083600481111561169657611695613e75565b5b02179055506000600387876040516116af92919061413a565b9081526020016040518091039020600601819055506000600387876040516116d892919061413a565b908152602001604051809103902060070181905550600b546005878760405161170292919061413a565b908152602001604051809103902081905550600b600081548092919061172790614621565b9190505550858560086000600a54815260200190815260200160002091906117509291906133b3565b50600a600081548092919061176490614621565b9190505550505050505050565b611779612b22565b73ffffffffffffffffffffffffffffffffffffffff166117976119e8565b73ffffffffffffffffffffffffffffffffffffffff16146117ed576040517f08c379a00000000000000000000000000000000000000000000000000000000081526004016117e490614a87565b60405180910390fd5b6117f76000612b2a565b565b6000600660008373ffffffffffffffffffffffffffffffffffffffff1673ffffffffffffffffffffffffffffffffffffffff16815260200190815260200160002060009054906101000a900460ff169050919050565b611857612b22565b73ffffffffffffffffffffffffffffffffffffffff166118756119e8565b73ffffffffffffffffffffffffffffffffffffffff16146118cb576040517f08c379a00000000000000000000000000000000000000000000000000000000081526004016118c290614a87565b60405180910390fd5b80601260006101000a81548173ffffffffffffffffffffffffffffffffffffffff021916908373ffffffffffffffffffffffffffffffffffffffff16021790555050565b60606018805480602002602001604051908101604052809291908181526020016000905b828210156119df578382906000526020600020018054611952906141ee565b80601f016020809104026020016040519081016040528092919081815260200182805461197e906141ee565b80156119cb5780601f106119a0576101008083540402835291602001916119cb565b820191906000526020600020905b8154815290600101906020018083116119ae57829003601f168201915b505050505081526020019060010190611933565b50505050905090565b60008060009054906101000a900473ffffffffffffffffffffffffffffffffffffffff16905090565b611a19612b22565b73ffffffffffffffffffffffffffffffffffffffff16611a376119e8565b73ffffffffffffffffffffffffffffffffffffffff1614611a8d576040517f08c379a0000000000000000000000000000000000000000000000000000000008152600401611a8490614a87565b60405180910390fd5b7f000000000000000000000000000000000000000000000000000000000000000073ffffffffffffffffffffffffffffffffffffffff1663a9059cbb337f000000000000000000000000000000000000000000000000000000000000000073ffffffffffffffffffffffffffffffffffffffff166370a08231306040518263ffffffff1660e01b8152600401611b239190613b1c565b602060405180830381865afa158015611b40573d6000803e3d6000fd5b505050506040513d601f19601f82011682018060405250810190611b649190614abc565b6040518363ffffffff1660e01b8152600401611b81929190614828565b6020604051808303816000875af1158015611ba0573d6000803e3d6000fd5b505050506040513d601f19601f82011682018060405250810190611bc4919061478f565b50565b6060600860008381526020019081526020016000208054611be7906141ee565b80601f0160208091040260200160405190810160405280929190818152602001828054611c13906141ee565b8015611c605780601f10611c3557610100808354040283529160200191611c60565b820191906000526020600020905b815481529060010190602001808311611c4357829003601f168201915b50505050509050919050565b60011515600660003373ffffffffffffffffffffffffffffffffffffffff1673ffffffffffffffffffffffffffffffffffffffff16815260200190815260200160002060009054906101000a900460ff16151514611cff576040517f08c379a0000000000000000000000000000000000000000000000000000000008152600401611cf69061419f565b60405180910390fd5b60026003811115611d1357611d12613e75565b5b60038383604051611d2592919061413a565b908152602001604051809103902060050160009054906101000a900460ff166003811115611d5657611d55613e75565b5b14611d96576040517f08c379a0000000000000000000000000000000000000000000000000000000008152600401611d8d90614601565b60405180910390fd5b60038282604051611da892919061413a565b9081526020016040518091039020600301544211611dfb576040517f08c379a0000000000000000000000000000000000000000000000000000000008152600401611df290614b35565b60405180910390fd5b6000606460038484604051611e1192919061413a565b908152602001604051809103902060060154611e2d91906149e1565b90506000606460038585604051611e4592919061413a565b908152602001604051809103902060070154611e6191906149e1565b90506000600260038686604051611e7992919061413a565b908152602001604051809103902060080154611e959190614b55565b603283611ea29190614b55565b611eac91906149e1565b905080831115611fd25760006003811115611eca57611ec9613e75565b5b60038686604051611edc92919061413a565b908152602001604051809103902060050160009054906101000a900460ff166003811115611f0d57611f0c613e75565b5b5050611f198585612bee565b6018858590918060018154018082558091505060019003906000526020600020016000909192909192909192909192509190611f569291906133b3565b507f19cf08368c3c86aacb1be12c902a304c3b1d64e4f72e1aa33789a01f68ecab058585604051611f88929190614b86565b60405180910390a1611f98612937565b50848460139190611faa9291906133b3565b50426014819055506000601560006101000a81548160ff0219169083151502179055506120a3565b60016003811115611fe657611fe5613e75565b5b60038686604051611ff892919061413a565b908152602001604051809103902060050160009054906101000a900460ff16600381111561202957612028613e75565b5b50507f276f61830e554c29810d2d21d6523c691bef4a9634206a55fee98c24e62c9a05858560405161205c929190614b86565b60405180910390a160188585909180600181540180825580915050600190039060005260206000200160009091929091929091929091925091906120a19291906133b3565b505b6000600586866040516120b792919061413a565b90815260200160405180910390205490506120d360168261306b565b600b60008154809291906120e690614baa565b9190505550505050505050565b7f000000000000000000000000000000000000000000000000000000000000000073ffffffffffffffffffffffffffffffffffffffff163373ffffffffffffffffffffffffffffffffffffffff1614612181576040517f08c379a000000000000000000000000000000000000000000000000000000000815260040161217890614c20565b60405180910390fd5b61218b8282613138565b5050565b60606017805480602002602001604051908101604052809291908181526020016000905b8282101561225f5783829060005260206000200180546121d2906141ee565b80601f01602080910402602001604051908101604052809291908181526020018280546121fe906141ee565b801561224b5780601f106122205761010080835404028352916020019161224b565b820191906000526020600020905b81548152906001019060200180831161222e57829003601f168201915b5050505050815260200190600101906121b3565b50505050905090565b60011515600660003373ffffffffffffffffffffffffffffffffffffffff1673ffffffffffffffffffffffffffffffffffffffff16815260200190815260200160002060009054906101000a900460ff161515146122fb576040517f08c379a00000000000000000000000000000000000000000000000000000000081526004016122f29061419f565b60405180910390fd5b6003600b5410612340576040517f08c379a00000000000000000000000000000000000000000000000000000000081526004016123379061489d565b60405180910390fd5b600381600481111561235557612354613e75565b5b60ff1614806123795750600481600481111561237457612373613e75565b5b60ff16145b6123b8576040517f08c379a00000000000000000000000000000000000000000000000000000000081526004016123af90614909565b60405180910390fd5b60001515600485856040516123ce92919061413a565b908152602001604051809103902060009054906101000a900460ff1615151461242c576040517f08c379a000000000000000000000000000000000000000000000000000000000815260040161242390614c8c565b60405180910390fd5b60016004858560405161244092919061413a565b908152602001604051809103902060006101000a81548160ff0219169083151502179055506000600d54603c61247691906149e1565b4261248191906143d2565b90506000600e54905060168686909180600181540180825580915050600190039060005260206000200160009091929091929091929091925091906124c79291906133b3565b5083600387876040516124db92919061413a565b908152602001604051809103902060000190805190602001906124ff929190613439565b50806003878760405161251392919061413a565b908152602001604051809103902060080181905550816003878760405161253b92919061413a565b90815260200160405180910390206003018190555060026003878760405161256492919061413a565b908152602001604051809103902060050160006101000a81548160ff0219169083600381111561259757612596613e75565b5b021790555082600387876040516125af92919061413a565b908152602001604051809103902060020160006101000a81548160ff021916908360048111156125e2576125e1613e75565b5b02179055506000600387876040516125fb92919061413a565b90815260200160405180910390206006018190555060006003878760405161262492919061413a565b908152602001604051809103902060070181905550600b546005878760405161264e92919061413a565b908152602001604051809103902081905550600b600081548092919061267390614621565b9190505550858560086000600a548152602001908152602001600020919061269c9291906133b3565b50600a60008154809291906126b090614621565b9190505550505050505050565b6000600260008573ffffffffffffffffffffffffffffffffffffffff1673ffffffffffffffffffffffffffffffffffffffff168152602001908152602001600020838360405161270e92919061413a565b908152602001604051809103902060009054906101000a900460ff1690509392505050565b61273b6134bf565b6003838360405161274d92919061413a565b908152602001604051809103902060405180610120016040529081600082018054612777906141ee565b80601f01602080910402602001604051908101604052809291908181526020018280546127a3906141ee565b80156127f05780601f106127c5576101008083540402835291602001916127f0565b820191906000526020600020905b8154815290600101906020018083116127d357829003601f168201915b50505050508152602001600182015481526020016002820160009054906101000a900460ff16600481111561282857612827613e75565b5b600481111561283a57612839613e75565b5b815260200160038201548152602001600482018054806020026020016040519081016040528092919081815260200182805480156128cd57602002820191906000526020600020905b8160009054906101000a900473ffffffffffffffffffffffffffffffffffffffff1673ffffffffffffffffffffffffffffffffffffffff1681526020019060010190808311612883575b505050505081526020016005820160009054906101000a900460ff1660038111156128fb576128fa613e75565b5b600381111561290d5761290c613e75565b5b81526020016006820154815260200160078201548152602001600882015481525050905092915050565b60006010547f000000000000000000000000000000000000000000000000000000000000000073ffffffffffffffffffffffffffffffffffffffff166370a08231306040518263ffffffff1660e01b81526004016129959190613b1c565b602060405180830381865afa1580156129b2573d6000803e3d6000fd5b505050506040513d601f19601f820116820180604052508101906129d69190614abc565b1015612a17576040517f08c379a0000000000000000000000000000000000000000000000000000000008152600401612a0e90614cf8565b60405180910390fd5b612a25601154601054613143565b905090565b612a32612b22565b73ffffffffffffffffffffffffffffffffffffffff16612a506119e8565b73ffffffffffffffffffffffffffffffffffffffff1614612aa6576040517f08c379a0000000000000000000000000000000000000000000000000000000008152600401612a9d90614a87565b60405180910390fd5b600073ffffffffffffffffffffffffffffffffffffffff168173ffffffffffffffffffffffffffffffffffffffff161415612b16576040517f08c379a0000000000000000000000000000000000000000000000000000000008152600401612b0d90614d8a565b60405180910390fd5b612b1f81612b2a565b50565b600033905090565b60008060009054906101000a900473ffffffffffffffffffffffffffffffffffffffff169050816000806101000a81548173ffffffffffffffffffffffffffffffffffffffff021916908373ffffffffffffffffffffffffffffffffffffffff1602179055508173ffffffffffffffffffffffffffffffffffffffff168173ffffffffffffffffffffffffffffffffffffffff167f8be0079c531659141344cd1fd0a4f28419497f9722a3daafe3b4186f6b6457e060405160405180910390a35050565b60006004811115612c0257612c01613e75565b5b60038383604051612c1492919061413a565b908152602001604051809103902060020160009054906101000a900460ff166004811115612c4557612c44613e75565b5b1415612cc257670de0b6b3a764000060038383604051612c6692919061413a565b908152602001604051809103902060010154612c8291906149e1565b600c819055507f6c4ce60fd690e1216286a10b875c5662555f10774484e58142cedd7a90781baa600c54604051612cb991906136f8565b60405180910390a15b60016004811115612cd657612cd5613e75565b5b60038383604051612ce892919061413a565b908152602001604051809103902060020160009054906101000a900460ff166004811115612d1957612d18613e75565b5b1415612d835760038282604051612d3192919061413a565b908152602001604051809103902060010154600e819055507f027863d12a407097e086a48e36475bfc859d0b200b7e6f65b5fd3b218e46632e600e54604051612d7a91906136f8565b60405180910390a15b60026004811115612d9757612d96613e75565b5b60038383604051612da992919061413a565b908152602001604051809103902060020160009054906101000a900460ff166004811115612dda57612dd9613e75565b5b1415612e445760038282604051612df292919061413a565b908152602001604051809103902060010154600d819055507fb7e758773be0b9eae107810cd31545df699a2d806b4154439cce983998f13d2e600d54604051612e3b91906136f8565b60405180910390a15b60036004811115612e5857612e57613e75565b5b60038383604051612e6a92919061413a565b908152602001604051809103902060020160009054906101000a900460ff166004811115612e9b57612e9a613e75565b5b1415612f19576017828290918060018154018082558091505060019003906000526020600020016000909192909192909192909192509190612ede9291906133b3565b507fb92badd505262771c92077b17c7dfd4f0336f517f924f40e2815ddcbf496c5cb8282604051612f10929190614b86565b60405180910390a15b600480811115612f2c57612f2b613e75565b5b60038383604051612f3e92919061413a565b908152602001604051809103902060020160009054906101000a900460ff166004811115612f6f57612f6e613e75565b5b1415613067576040518060400160405280600481526020017f6e6f6e650000000000000000000000000000000000000000000000000000000081525060038383604051612fbd92919061413a565b90815260200160405180910390206000019080519060200190612fe1929190613439565b506003808383604051612ff592919061413a565b908152602001604051809103902060050160006101000a81548160ff0219169083600381111561302857613027613e75565b5b02179055507f6e5900d59707241cb6bede127d6691b9510900ba627587f3f52494aa05802c76828260405161305e929190614b86565b60405180910390a15b5050565b60008190505b600183805490506130829190614daa565b8110156130fa578260018261309791906143d2565b815481106130a8576130a761451a565b5b906000526020600020018382815481106130c5576130c461451a565b5b906000526020600020019080546130db906141ee565b6130e692919061352f565b5080806130f290614621565b915050613071565b508180548061310c5761310b614dde565b5b60019003818190600052602060002001600061312891906135bc565b90556131348282613295565b5050565b80600f819055505050565b60007f000000000000000000000000000000000000000000000000000000000000000073ffffffffffffffffffffffffffffffffffffffff16634000aea07f0000000000000000000000000000000000000000000000000000000000000000848660006040516020016131b7929190614e0d565b6040516020818303038152906040526040518463ffffffff1660e01b81526004016131e493929190614e8b565b6020604051808303816000875af1158015613203573d6000803e3d6000fd5b505050506040513d601f19601f82011682018060405250810190613227919061478f565b50600061324a846000306001600089815260200190815260200160002054613344565b905060018060008681526020019081526020016000205461326b91906143d2565b600160008681526020019081526020016000208190555061328c8482613380565b91505092915050565b60008190505b828054905081101561333f57600160058483815481106132be576132bd61451a565b5b906000526020600020016040516132d591906142b4565b9081526020016040518091039020546132ee9190614daa565b60058483815481106133035761330261451a565b5b9060005260206000200160405161331a91906142b4565b908152602001604051809103902081905550808061333790614621565b91505061329b565b505050565b60008484848460405160200161335d9493929190614ec9565b6040516020818303038152906040528051906020012060001c9050949350505050565b60008282604051602001613395929190614f50565b60405160208183030381529060405280519060200120905092915050565b8280546133bf906141ee565b90600052602060002090601f0160209004810192826133e15760008555613428565b82601f106133fa57803560ff1916838001178555613428565b82800160010185558215613428579182015b8281111561342757823582559160200191906001019061340c565b5b50905061343591906135fc565b5090565b828054613445906141ee565b90600052602060002090601f01602090048101928261346757600085556134ae565b82601f1061348057805160ff19168380011785556134ae565b828001600101855582156134ae579182015b828111156134ad578251825591602001919060010190613492565b5b5090506134bb91906135fc565b5090565b6040518061012001604052806060815260200160008152602001600060048111156134ed576134ec613e75565b5b815260200160008152602001606081526020016000600381111561351457613513613e75565b5b81526020016000815260200160008152602001600081525090565b82805461353b906141ee565b90600052602060002090601f01602090048101928261355d57600085556135ab565b82601f1061356e57805485556135ab565b828001600101855582156135ab57600052602060002091601f016020900482015b828111156135aa57825482559160010191906001019061358f565b5b5090506135b891906135fc565b5090565b5080546135c8906141ee565b6000825580601f106135da57506135f9565b601f0160209004906000526020600020908101906135f891906135fc565b5b50565b5b808211156136155760008160009055506001016135fd565b5090565b6000604051905090565b600080fd5b600080fd5b600080fd5b600080fd5b600080fd5b60008083601f8401126136525761365161362d565b5b8235905067ffffffffffffffff81111561366f5761366e613632565b5b60208301915083600182028301111561368b5761368a613637565b5b9250929050565b600080602083850312156136a9576136a8613623565b5b600083013567ffffffffffffffff8111156136c7576136c6613628565b5b6136d38582860161363c565b92509250509250929050565b6000819050919050565b6136f2816136df565b82525050565b600060208201905061370d60008301846136e9565b92915050565b60008115159050919050565b61372881613713565b82525050565b6000602082019050613743600083018461371f565b92915050565b61375281613713565b811461375d57600080fd5b50565b60008135905061376f81613749565b92915050565b60008060006040848603121561378e5761378d613623565b5b600084013567ffffffffffffffff8111156137ac576137ab613628565b5b6137b88682870161363c565b935093505060206137cb86828701613760565b9150509250925092565b600073ffffffffffffffffffffffffffffffffffffffff82169050919050565b6000613800826137d5565b9050919050565b613810816137f5565b811461381b57600080fd5b50565b60008135905061382d81613807565b92915050565b60006020828403121561384957613848613623565b5b60006138578482850161381e565b91505092915050565b600081519050919050565b600082825260208201905092915050565b6000819050602082019050919050565b600081519050919050565b600082825260208201905092915050565b60005b838110156138c65780820151818401526020810190506138ab565b838111156138d5576000848401525b50505050565b6000601f19601f8301169050919050565b60006138f78261388c565b6139018185613897565b93506139118185602086016138a8565b61391a816138db565b840191505092915050565b600061393183836138ec565b905092915050565b6000602082019050919050565b600061395182613860565b61395b818561386b565b93508360208202850161396d8561387c565b8060005b858110156139a9578484038952815161398a8582613925565b945061399583613939565b925060208a01995050600181019050613971565b50829750879550505050505092915050565b600060208201905081810360008301526139d58184613946565b905092915050565b6139e6816136df565b81146139f157600080fd5b50565b600081359050613a03816139dd565b92915050565b60058110613a1657600080fd5b50565b600081359050613a2881613a09565b92915050565b60008060008060608587031215613a4857613a47613623565b5b600085013567ffffffffffffffff811115613a6657613a65613628565b5b613a728782880161363c565b94509450506020613a85878288016139f4565b9250506040613a9687828801613a19565b91505092959194509250565b6000613aad826137f5565b9050919050565b613abd81613aa2565b8114613ac857600080fd5b50565b600081359050613ada81613ab4565b92915050565b600060208284031215613af657613af5613623565b5b6000613b0484828501613acb565b91505092915050565b613b16816137f5565b82525050565b6000602082019050613b316000830184613b0d565b92915050565b600060208284031215613b4d57613b4c613623565b5b6000613b5b848285016139f4565b91505092915050565b600082825260208201905092915050565b6000613b808261388c565b613b8a8185613b64565b9350613b9a8185602086016138a8565b613ba3816138db565b840191505092915050565b60006020820190508181036000830152613bc88184613b75565b905092915050565b6000819050919050565b613be381613bd0565b8114613bee57600080fd5b50565b600081359050613c0081613bda565b92915050565b60008060408385031215613c1d57613c1c613623565b5b6000613c2b85828601613bf1565b9250506020613c3c858286016139f4565b9150509250929050565b600080fd5b7f4e487b7100000000000000000000000000000000000000000000000000000000600052604160045260246000fd5b613c83826138db565b810181811067ffffffffffffffff82111715613ca257613ca1613c4b565b5b80604052505050565b6000613cb5613619565b9050613cc18282613c7a565b919050565b600067ffffffffffffffff821115613ce157613ce0613c4b565b5b613cea826138db565b9050602081019050919050565b82818337600083830152505050565b6000613d19613d1484613cc6565b613cab565b905082815260208101848484011115613d3557613d34613c46565b5b613d40848285613cf7565b509392505050565b600082601f830112613d5d57613d5c61362d565b5b8135613d6d848260208601613d06565b91505092915050565b60008060008060608587031215613d9057613d8f613623565b5b600085013567ffffffffffffffff811115613dae57613dad613628565b5b613dba8782880161363c565b9450945050602085013567ffffffffffffffff811115613ddd57613ddc613628565b5b613de987828801613d48565b9250506040613dfa87828801613a19565b91505092959194509250565b600080600060408486031215613e1f57613e1e613623565b5b6000613e2d8682870161381e565b935050602084013567ffffffffffffffff811115613e4e57613e4d613628565b5b613e5a8682870161363c565b92509250509250925092565b613e6f816136df565b82525050565b7f4e487b7100000000000000000000000000000000000000000000000000000000600052602160045260246000fd5b60058110613eb557613eb4613e75565b5b50565b6000819050613ec682613ea4565b919050565b6000613ed682613eb8565b9050919050565b613ee681613ecb565b82525050565b600081519050919050565b600082825260208201905092915050565b6000819050602082019050919050565b613f21816137f5565b82525050565b6000613f338383613f18565b60208301905092915050565b6000602082019050919050565b6000613f5782613eec565b613f618185613ef7565b9350613f6c83613f08565b8060005b83811015613f9d578151613f848882613f27565b9750613f8f83613f3f565b925050600181019050613f70565b5085935050505092915050565b60048110613fbb57613fba613e75565b5b50565b6000819050613fcc82613faa565b919050565b6000613fdc82613fbe565b9050919050565b613fec81613fd1565b82525050565b600061012083016000830151848203600086015261401082826138ec565b91505060208301516140256020860182613e66565b5060408301516140386040860182613edd565b50606083015161404b6060860182613e66565b50608083015184820360808601526140638282613f4c565b91505060a083015161407860a0860182613fe3565b5060c083015161408b60c0860182613e66565b5060e083015161409e60e0860182613e66565b506101008301516140b3610100860182613e66565b508091505092915050565b600060208201905081810360008301526140d88184613ff2565b905092915050565b6140e981613bd0565b82525050565b600060208201905061410460008301846140e0565b92915050565b600081905092915050565b6000614121838561410a565b935061412e838584613cf7565b82840190509392505050565b6000614147828486614115565b91508190509392505050565b7f6e6f742061206d656d6265720000000000000000000000000000000000000000600082015250565b6000614189600c83613b64565b915061419482614153565b602082019050919050565b600060208201905081810360008301526141b88161417c565b9050919050565b7f4e487b7100000000000000000000000000000000000000000000000000000000600052602260045260246000fd5b6000600282049050600182168061420657607f821691505b6020821081141561421a576142196141bf565b5b50919050565b60008190508160005260206000209050919050565b60008154614242816141ee565b61424c818661410a565b945060018216600081146142675760018114614278576142ab565b60ff198316865281860193506142ab565b61428185614220565b60005b838110156142a357815481890152600182019150602081019050614284565b838801955050505b50505092915050565b60006142c08284614235565b915081905092915050565b7f50726f706f73616c20696e2070726f6772657373000000000000000000000000600082015250565b6000614301601483613b64565b915061430c826142cb565b602082019050919050565b60006020820190508181036000830152614330816142f4565b9050919050565b7f77696e6e65722068617320616c7265616479206265656e2063686f73656e0000600082015250565b600061436d601e83613b64565b915061437882614337565b602082019050919050565b6000602082019050818103600083015261439c81614360565b9050919050565b7f4e487b7100000000000000000000000000000000000000000000000000000000600052601160045260246000fd5b60006143dd826136df565b91506143e8836136df565b9250827fffffffffffffffffffffffffffffffffffffffffffffffffffffffffffffffff0382111561441d5761441c6143a3565b5b828201905092915050565b7f77616974203330207365636f6e6473206166746572206465636964696e67207060008201527f726f706f73616c00000000000000000000000000000000000000000000000000602082015250565b6000614484602783613b64565b915061448f82614428565b604082019050919050565b600060208201905081810360008301526144b381614477565b9050919050565b7f4e487b7100000000000000000000000000000000000000000000000000000000600052601260045260246000fd5b60006144f4826136df565b91506144ff836136df565b92508261450f5761450e6144ba565b5b828206905092915050565b7f4e487b7100000000000000000000000000000000000000000000000000000000600052603260045260246000fd5b7f616c726561647920766f74656400000000000000000000000000000000000000600082015250565b600061457f600d83613b64565b915061458a82614549565b602082019050919050565b600060208201905081810360008301526145ae81614572565b9050919050565b7f6e6f7420696e2070726f67726573730000000000000000000000000000000000600082015250565b60006145eb600f83613b64565b91506145f6826145b5565b602082019050919050565b6000602082019050818103600083015261461a816145de565b9050919050565b600061462c826136df565b91507fffffffffffffffffffffffffffffffffffffffffffffffffffffffffffffffff82141561465f5761465e6143a3565b5b600182019050919050565b60006146768385613b64565b9350614683838584613cf7565b61468c836138db565b840190509392505050565b60006060820190506146ac6000830187613b0d565b81810360208301526146bf81858761466a565b90506146ce604083018461371f565b95945050505050565b7f616c7265616479207374616b6564000000000000000000000000000000000000600082015250565b600061470d600e83613b64565b9150614718826146d7565b602082019050919050565b6000602082019050818103600083015261473c81614700565b9050919050565b60006060820190506147586000830186613b0d565b6147656020830185613b0d565b61477260408301846136e9565b949350505050565b60008151905061478981613749565b92915050565b6000602082840312156147a5576147a4613623565b5b60006147b38482850161477a565b91505092915050565b7f7472616e73666572207265717569726564000000000000000000000000000000600082015250565b60006147f2601183613b64565b91506147fd826147bc565b602082019050919050565b60006020820190508181036000830152614821816147e5565b9050919050565b600060408201905061483d6000830185613b0d565b61484a60208301846136e9565b9392505050565b7f616c72656164792033206163746976652070726f706f73616c73000000000000600082015250565b6000614887601a83613b64565b915061489282614851565b602082019050919050565b600060208201905081810360008301526148b68161487a565b9050919050565b7f696e76616c696420696e64696361746f72000000000000000000000000000000600082015250565b60006148f3601183613b64565b91506148fe826148bd565b602082019050919050565b60006020820190508181036000830152614922816148e6565b9050919050565b7f63686f6f7365206e6577206e616d65202d20666f722071756f72756d2c206c6f60008201527f636b74696d652c206f72207468726573686f6c643a206d616b65206e616d652060208201527f756e697175650000000000000000000000000000000000000000000000000000604082015250565b60006149ab604683613b64565b91506149b682614929565b606082019050919050565b600060208201905081810360008301526149da8161499e565b9050919050565b60006149ec826136df565b91506149f7836136df565b9250817fffffffffffffffffffffffffffffffffffffffffffffffffffffffffffffffff0483118215151615614a3057614a2f6143a3565b5b828202905092915050565b7f4f776e61626c653a2063616c6c6572206973206e6f7420746865206f776e6572600082015250565b6000614a71602083613b64565b9150614a7c82614a3b565b602082019050919050565b60006020820190508181036000830152614aa081614a64565b9050919050565b600081519050614ab6816139dd565b92915050565b600060208284031215614ad257614ad1613623565b5b6000614ae084828501614aa7565b91505092915050565b7f70726f706f73616c20696e2070726f6772657373000000000000000000000000600082015250565b6000614b1f601483613b64565b9150614b2a82614ae9565b602082019050919050565b60006020820190508181036000830152614b4e81614b12565b9050919050565b6000614b60826136df565b9150614b6b836136df565b925082614b7b57614b7a6144ba565b5b828204905092915050565b60006020820190508181036000830152614ba181848661466a565b90509392505050565b6000614bb5826136df565b91506000821415614bc957614bc86143a3565b5b600182039050919050565b7f4f6e6c7920565246436f6f7264696e61746f722063616e2066756c66696c6c00600082015250565b6000614c0a601f83613b64565b9150614c1582614bd4565b602082019050919050565b60006020820190508181036000830152614c3981614bfd565b9050919050565b7f63686f6f7365206e6577206e616d650000000000000000000000000000000000600082015250565b6000614c76600f83613b64565b9150614c8182614c40565b602082019050919050565b60006020820190508181036000830152614ca581614c69565b9050919050565b7f4e6f7420656e6f756768204c494e4b0000000000000000000000000000000000600082015250565b6000614ce2600f83613b64565b9150614ced82614cac565b602082019050919050565b60006020820190508181036000830152614d1181614cd5565b9050919050565b7f4f776e61626c653a206e6577206f776e657220697320746865207a65726f206160008201527f6464726573730000000000000000000000000000000000000000000000000000602082015250565b6000614d74602683613b64565b9150614d7f82614d18565b604082019050919050565b60006020820190508181036000830152614da381614d67565b9050919050565b6000614db5826136df565b9150614dc0836136df565b925082821015614dd357614dd26143a3565b5b828203905092915050565b7f4e487b7100000000000000000000000000000000000000000000000000000000600052603160045260246000fd5b6000604082019050614e2260008301856140e0565b614e2f60208301846136e9565b9392505050565b600081519050919050565b600082825260208201905092915050565b6000614e5d82614e36565b614e678185614e41565b9350614e778185602086016138a8565b614e80816138db565b840191505092915050565b6000606082019050614ea06000830186613b0d565b614ead60208301856136e9565b8181036040830152614ebf8184614e52565b9050949350505050565b6000608082019050614ede60008301876140e0565b614eeb60208301866136e9565b614ef86040830185613b0d565b614f0560608301846136e9565b95945050505050565b6000819050919050565b614f29614f2482613bd0565b614f0e565b82525050565b6000819050919050565b614f4a614f45826136df565b614f2f565b82525050565b6000614f5c8285614f18565b602082019150614f6c8284614f39565b602082019150819050939250505056fea2646970667358221220a49101b4706fcb58ac30d7a67f7aec5dcbcf5534dae480dd5e2c39c668a239a764736f6c634300080a003360806040523480156200001157600080fd5b506040518060400160405280600681526020017f44616f62616f00000000000000000000000000000000000000000000000000008152506040518060400160405280600281526020017f4442000000000000000000000000000000000000000000000000000000000000815250816003908051906020019062000096929190620004af565b508060049080519060200190620000af929190620004af565b5050506000600560006101000a81548160ff021916908315150217905550620000ed620000e16200018660201b60201c565b6200018e60201b60201c565b6200012f33620001026200025460201b60201c565b60ff16600a620001139190620006ec565b620f42406200012391906200073d565b6200025d60201b60201c565b33600660006101000a81548173ffffffffffffffffffffffffffffffffffffffff021916908373ffffffffffffffffffffffffffffffffffffffff16021790555062000180620003d660201b60201c565b620009e5565b600033905090565b6000600560019054906101000a900473ffffffffffffffffffffffffffffffffffffffff16905081600560016101000a81548173ffffffffffffffffffffffffffffffffffffffff021916908373ffffffffffffffffffffffffffffffffffffffff1602179055508173ffffffffffffffffffffffffffffffffffffffff168173ffffffffffffffffffffffffffffffffffffffff167f8be0079c531659141344cd1fd0a4f28419497f9722a3daafe3b4186f6b6457e060405160405180910390a35050565b60006012905090565b600073ffffffffffffffffffffffffffffffffffffffff168273ffffffffffffffffffffffffffffffffffffffff161415620002d0576040517f08c379a0000000000000000000000000000000000000000000000000000000008152600401620002c790620007ff565b60405180910390fd5b620002e4600083836200048e60201b60201c565b8060026000828254620002f8919062000821565b92505081905550806000808473ffffffffffffffffffffffffffffffffffffffff1673ffffffffffffffffffffffffffffffffffffffff16815260200190815260200160002060008282546200034f919062000821565b925050819055508173ffffffffffffffffffffffffffffffffffffffff16600073ffffffffffffffffffffffffffffffffffffffff167fddf252ad1be2c89b69c2b068fc378daa952ba7f163c4a11628f55a4df523b3ef83604051620003b691906200088f565b60405180910390a3620003d2600083836200049360201b60201c565b5050565b620003e66200049860201b60201c565b1562000429576040517f08c379a00000000000000000000000000000000000000000000000000000000081526004016200042090620008fc565b60405180910390fd5b6001600560006101000a81548160ff0219169083151502179055507f62e78cea01bee320cd4e420270b5ea74000d11b0c9f74754ebdbfc544b05a258620004756200018660201b60201c565b60405162000484919062000963565b60405180910390a1565b505050565b505050565b6000600560009054906101000a900460ff16905090565b828054620004bd90620009af565b90600052602060002090601f016020900481019282620004e157600085556200052d565b82601f10620004fc57805160ff19168380011785556200052d565b828001600101855582156200052d579182015b828111156200052c5782518255916020019190600101906200050f565b5b5090506200053c919062000540565b5090565b5b808211156200055b57600081600090555060010162000541565b5090565b7f4e487b7100000000000000000000000000000000000000000000000000000000600052601160045260246000fd5b60008160011c9050919050565b6000808291508390505b6001851115620005ed57808604811115620005c557620005c46200055f565b5b6001851615620005d55780820291505b8081029050620005e5856200058e565b9450620005a5565b94509492505050565b600082620006085760019050620006db565b81620006185760009050620006db565b81600181146200063157600281146200063c5762000672565b6001915050620006db565b60ff8411156200065157620006506200055f565b5b8360020a9150848211156200066b576200066a6200055f565b5b50620006db565b5060208310610133831016604e8410600b8410161715620006ac5782820a905083811115620006a657620006a56200055f565b5b620006db565b620006bb84848460016200059b565b92509050818404811115620006d557620006d46200055f565b5b81810290505b9392505050565b6000819050919050565b6000620006f982620006e2565b91506200070683620006e2565b9250620007357fffffffffffffffffffffffffffffffffffffffffffffffffffffffffffffffff8484620005f6565b905092915050565b60006200074a82620006e2565b91506200075783620006e2565b9250817fffffffffffffffffffffffffffffffffffffffffffffffffffffffffffffffff04831182151516156200079357620007926200055f565b5b828202905092915050565b600082825260208201905092915050565b7f45524332303a206d696e7420746f20746865207a65726f206164647265737300600082015250565b6000620007e7601f836200079e565b9150620007f482620007af565b602082019050919050565b600060208201905081810360008301526200081a81620007d8565b9050919050565b60006200082e82620006e2565b91506200083b83620006e2565b9250827fffffffffffffffffffffffffffffffffffffffffffffffffffffffffffffffff038211156200087357620008726200055f565b5b828201905092915050565b6200088981620006e2565b82525050565b6000602082019050620008a660008301846200087e565b92915050565b7f5061757361626c653a2070617573656400000000000000000000000000000000600082015250565b6000620008e46010836200079e565b9150620008f182620008ac565b602082019050919050565b600060208201905081810360008301526200091781620008d5565b9050919050565b600073ffffffffffffffffffffffffffffffffffffffff82169050919050565b60006200094b826200091e565b9050919050565b6200095d816200093e565b82525050565b60006020820190506200097a600083018462000952565b92915050565b7f4e487b7100000000000000000000000000000000000000000000000000000000600052602260045260246000fd5b60006002820490506001821680620009c857607f821691505b60208210811415620009df57620009de62000980565b5b50919050565b6120ba80620009f56000396000f3fe608060405234801561001057600080fd5b50600436106101215760003560e01c80635c975abb116100ad57806395d89b411161007157806395d89b41146102f6578063a457c2d714610314578063a9059cbb14610344578063dd62ed3e14610374578063f2fde38b146103a457610121565b80635c975abb1461026457806370a0823114610282578063715018a6146102b257806379cc6790146102bc5780638da5cb5b146102d857610121565b806318160ddd116100f457806318160ddd146101ac57806323b872dd146101ca578063313ce567146101fa578063395093511461021857806342966c681461024857610121565b80630481b7c81461012657806306fdde0314610142578063095ea7b3146101605780631066c7b014610190575b600080fd5b610140600480360381019061013b91906114ff565b6103c0565b005b61014a610470565b60405161015791906115c5565b60405180910390f35b61017a6004803603810190610175919061161d565b610502565b6040516101879190611678565b60405180910390f35b6101aa60048036038101906101a591906114ff565b610520565b005b6101b46105d0565b6040516101c191906116a2565b60405180910390f35b6101e460048036038101906101df91906116bd565b6105da565b6040516101f19190611678565b60405180910390f35b6102026106d2565b60405161020f919061172c565b60405180910390f35b610232600480360381019061022d919061161d565b6106db565b60405161023f9190611678565b60405180910390f35b610262600480360381019061025d9190611747565b610787565b005b61026c61079b565b6040516102799190611678565b60405180910390f35b61029c600480360381019061029791906114ff565b6107b2565b6040516102a991906116a2565b60405180910390f35b6102ba6107fa565b005b6102d660048036038101906102d1919061161d565b610882565b005b6102e06108fd565b6040516102ed9190611783565b60405180910390f35b6102fe610927565b60405161030b91906115c5565b60405180910390f35b61032e6004803603810190610329919061161d565b6109b9565b60405161033b9190611678565b60405180910390f35b61035e6004803603810190610359919061161d565b610aa4565b60405161036b9190611678565b60405180910390f35b61038e6004803603810190610389919061179e565b610ac2565b60405161039b91906116a2565b60405180910390f35b6103be60048036038101906103b991906114ff565b610b49565b005b600660009054906101000a900473ffffffffffffffffffffffffffffffffffffffff1673ffffffffffffffffffffffffffffffffffffffff163373ffffffffffffffffffffffffffffffffffffffff161461041a57600080fd5b61042c81670de0b6b3a7640000610c41565b7f696de425f79f4a40bc6d2122ca50507f0efbeabbff86a84871b7196ab8ea8df781670de0b6b3a7640000604051610465929190611823565b60405180910390a150565b60606003805461047f9061187b565b80601f01602080910402602001604051908101604052809291908181526020018280546104ab9061187b565b80156104f85780601f106104cd576101008083540402835291602001916104f8565b820191906000526020600020905b8154815290600101906020018083116104db57829003601f168201915b5050505050905090565b600061051661050f610e18565b8484610e20565b6001905092915050565b600660009054906101000a900473ffffffffffffffffffffffffffffffffffffffff1673ffffffffffffffffffffffffffffffffffffffff163373ffffffffffffffffffffffffffffffffffffffff161461057a57600080fd5b61058c81670de0b6b3a7640000610feb565b7f30385c845b448a36257a6a1716e6ad2e1bc2cbe333cde1e69fe849ad6511adfe81670de0b6b3a76400006040516105c5929190611823565b60405180910390a150565b6000600254905090565b60006105e784848461114b565b6000600160008673ffffffffffffffffffffffffffffffffffffffff1673ffffffffffffffffffffffffffffffffffffffff1681526020019081526020016000206000610632610e18565b73ffffffffffffffffffffffffffffffffffffffff1673ffffffffffffffffffffffffffffffffffffffff168152602001908152602001600020549050828110156106b2576040517f08c379a00000000000000000000000000000000000000000000000000000000081526004016106a99061191f565b60405180910390fd5b6106c6856106be610e18565b858403610e20565b60019150509392505050565b60006012905090565b600061077d6106e8610e18565b8484600160006106f6610e18565b73ffffffffffffffffffffffffffffffffffffffff1673ffffffffffffffffffffffffffffffffffffffff16815260200190815260200160002060008873ffffffffffffffffffffffffffffffffffffffff1673ffffffffffffffffffffffffffffffffffffffff16815260200190815260200160002054610778919061196e565b610e20565b6001905092915050565b610798610792610e18565b82610c41565b50565b6000600560009054906101000a900460ff16905090565b60008060008373ffffffffffffffffffffffffffffffffffffffff1673ffffffffffffffffffffffffffffffffffffffff168152602001908152602001600020549050919050565b610802610e18565b73ffffffffffffffffffffffffffffffffffffffff166108206108fd565b73ffffffffffffffffffffffffffffffffffffffff1614610876576040517f08c379a000000000000000000000000000000000000000000000000000000000815260040161086d90611a10565b60405180910390fd5b61088060006113cc565b565b600061089583610890610e18565b610ac2565b9050818110156108da576040517f08c379a00000000000000000000000000000000000000000000000000000000081526004016108d190611aa2565b60405180910390fd5b6108ee836108e6610e18565b848403610e20565b6108f88383610c41565b505050565b6000600560019054906101000a900473ffffffffffffffffffffffffffffffffffffffff16905090565b6060600480546109369061187b565b80601f01602080910402602001604051908101604052809291908181526020018280546109629061187b565b80156109af5780601f10610984576101008083540402835291602001916109af565b820191906000526020600020905b81548152906001019060200180831161099257829003601f168201915b5050505050905090565b600080600160006109c8610e18565b73ffffffffffffffffffffffffffffffffffffffff1673ffffffffffffffffffffffffffffffffffffffff16815260200190815260200160002060008573ffffffffffffffffffffffffffffffffffffffff1673ffffffffffffffffffffffffffffffffffffffff16815260200190815260200160002054905082811015610a85576040517f08c379a0000000000000000000000000000000000000000000000000000000008152600401610a7c90611b34565b60405180910390fd5b610a99610a90610e18565b85858403610e20565b600191505092915050565b6000610ab8610ab1610e18565b848461114b565b6001905092915050565b6000600160008473ffffffffffffffffffffffffffffffffffffffff1673ffffffffffffffffffffffffffffffffffffffff16815260200190815260200160002060008373ffffffffffffffffffffffffffffffffffffffff1673ffffffffffffffffffffffffffffffffffffffff16815260200190815260200160002054905092915050565b610b51610e18565b73ffffffffffffffffffffffffffffffffffffffff16610b6f6108fd565b73ffffffffffffffffffffffffffffffffffffffff1614610bc5576040517f08c379a0000000000000000000000000000000000000000000000000000000008152600401610bbc90611a10565b60405180910390fd5b600073ffffffffffffffffffffffffffffffffffffffff168173ffffffffffffffffffffffffffffffffffffffff161415610c35576040517f08c379a0000000000000000000000000000000000000000000000000000000008152600401610c2c90611bc6565b60405180910390fd5b610c3e816113cc565b50565b600073ffffffffffffffffffffffffffffffffffffffff168273ffffffffffffffffffffffffffffffffffffffff161415610cb1576040517f08c379a0000000000000000000000000000000000000000000000000000000008152600401610ca890611c58565b60405180910390fd5b610cbd82600083611492565b60008060008473ffffffffffffffffffffffffffffffffffffffff1673ffffffffffffffffffffffffffffffffffffffff16815260200190815260200160002054905081811015610d43576040517f08c379a0000000000000000000000000000000000000000000000000000000008152600401610d3a90611cea565b60405180910390fd5b8181036000808573ffffffffffffffffffffffffffffffffffffffff1673ffffffffffffffffffffffffffffffffffffffff168152602001908152602001600020819055508160026000828254610d9a9190611d0a565b92505081905550600073ffffffffffffffffffffffffffffffffffffffff168373ffffffffffffffffffffffffffffffffffffffff167fddf252ad1be2c89b69c2b068fc378daa952ba7f163c4a11628f55a4df523b3ef84604051610dff91906116a2565b60405180910390a3610e1383600084611497565b505050565b600033905090565b600073ffffffffffffffffffffffffffffffffffffffff168373ffffffffffffffffffffffffffffffffffffffff161415610e90576040517f08c379a0000000000000000000000000000000000000000000000000000000008152600401610e8790611db0565b60405180910390fd5b600073ffffffffffffffffffffffffffffffffffffffff168273ffffffffffffffffffffffffffffffffffffffff161415610f00576040517f08c379a0000000000000000000000000000000000000000000000000000000008152600401610ef790611e42565b60405180910390fd5b80600160008573ffffffffffffffffffffffffffffffffffffffff1673ffffffffffffffffffffffffffffffffffffffff16815260200190815260200160002060008473ffffffffffffffffffffffffffffffffffffffff1673ffffffffffffffffffffffffffffffffffffffff168152602001908152602001600020819055508173ffffffffffffffffffffffffffffffffffffffff168373ffffffffffffffffffffffffffffffffffffffff167f8c5be1e5ebec7d5bd14f71427d1e84f3dd0314c0f7b2291e5b200ac8c7c3b92583604051610fde91906116a2565b60405180910390a3505050565b600073ffffffffffffffffffffffffffffffffffffffff168273ffffffffffffffffffffffffffffffffffffffff16141561105b576040517f08c379a000000000000000000000000000000000000000000000000000000000815260040161105290611eae565b60405180910390fd5b61106760008383611492565b8060026000828254611079919061196e565b92505081905550806000808473ffffffffffffffffffffffffffffffffffffffff1673ffffffffffffffffffffffffffffffffffffffff16815260200190815260200160002060008282546110ce919061196e565b925050819055508173ffffffffffffffffffffffffffffffffffffffff16600073ffffffffffffffffffffffffffffffffffffffff167fddf252ad1be2c89b69c2b068fc378daa952ba7f163c4a11628f55a4df523b3ef8360405161113391906116a2565b60405180910390a361114760008383611497565b5050565b600073ffffffffffffffffffffffffffffffffffffffff168373ffffffffffffffffffffffffffffffffffffffff1614156111bb576040517f08c379a00000000000000000000000000000000000000000000000000000000081526004016111b290611f40565b60405180910390fd5b600073ffffffffffffffffffffffffffffffffffffffff168273ffffffffffffffffffffffffffffffffffffffff16141561122b576040517f08c379a000000000000000000000000000000000000000000000000000000000815260040161122290611fd2565b60405180910390fd5b611236838383611492565b60008060008573ffffffffffffffffffffffffffffffffffffffff1673ffffffffffffffffffffffffffffffffffffffff168152602001908152602001600020549050818110156112bc576040517f08c379a00000000000000000000000000000000000000000000000000000000081526004016112b390612064565b60405180910390fd5b8181036000808673ffffffffffffffffffffffffffffffffffffffff1673ffffffffffffffffffffffffffffffffffffffff16815260200190815260200160002081905550816000808573ffffffffffffffffffffffffffffffffffffffff1673ffffffffffffffffffffffffffffffffffffffff168152602001908152602001600020600082825461134f919061196e565b925050819055508273ffffffffffffffffffffffffffffffffffffffff168473ffffffffffffffffffffffffffffffffffffffff167fddf252ad1be2c89b69c2b068fc378daa952ba7f163c4a11628f55a4df523b3ef846040516113b391906116a2565b60405180910390a36113c6848484611497565b50505050565b6000600560019054906101000a900473ffffffffffffffffffffffffffffffffffffffff16905081600560016101000a81548173ffffffffffffffffffffffffffffffffffffffff021916908373ffffffffffffffffffffffffffffffffffffffff1602179055508173ffffffffffffffffffffffffffffffffffffffff168173ffffffffffffffffffffffffffffffffffffffff167f8be0079c531659141344cd1fd0a4f28419497f9722a3daafe3b4186f6b6457e060405160405180910390a35050565b505050565b505050565b600080fd5b600073ffffffffffffffffffffffffffffffffffffffff82169050919050565b60006114cc826114a1565b9050919050565b6114dc816114c1565b81146114e757600080fd5b50565b6000813590506114f9816114d3565b92915050565b6000602082840312156115155761151461149c565b5b6000611523848285016114ea565b91505092915050565b600081519050919050565b600082825260208201905092915050565b60005b8381101561156657808201518184015260208101905061154b565b83811115611575576000848401525b50505050565b6000601f19601f8301169050919050565b60006115978261152c565b6115a18185611537565b93506115b1818560208601611548565b6115ba8161157b565b840191505092915050565b600060208201905081810360008301526115df818461158c565b905092915050565b6000819050919050565b6115fa816115e7565b811461160557600080fd5b50565b600081359050611617816115f1565b92915050565b600080604083850312156116345761163361149c565b5b6000611642858286016114ea565b925050602061165385828601611608565b9150509250929050565b60008115159050919050565b6116728161165d565b82525050565b600060208201905061168d6000830184611669565b92915050565b61169c816115e7565b82525050565b60006020820190506116b76000830184611693565b92915050565b6000806000606084860312156116d6576116d561149c565b5b60006116e4868287016114ea565b93505060206116f5868287016114ea565b925050604061170686828701611608565b9150509250925092565b600060ff82169050919050565b61172681611710565b82525050565b6000602082019050611741600083018461171d565b92915050565b60006020828403121561175d5761175c61149c565b5b600061176b84828501611608565b91505092915050565b61177d816114c1565b82525050565b60006020820190506117986000830184611774565b92915050565b600080604083850312156117b5576117b461149c565b5b60006117c3858286016114ea565b92505060206117d4858286016114ea565b9150509250929050565b6000819050919050565b6000819050919050565b600061180d611808611803846117de565b6117e8565b6115e7565b9050919050565b61181d816117f2565b82525050565b60006040820190506118386000830185611774565b6118456020830184611814565b9392505050565b7f4e487b7100000000000000000000000000000000000000000000000000000000600052602260045260246000fd5b6000600282049050600182168061189357607f821691505b602082108114156118a7576118a661184c565b5b50919050565b7f45524332303a207472616e7366657220616d6f756e742065786365656473206160008201527f6c6c6f77616e6365000000000000000000000000000000000000000000000000602082015250565b6000611909602883611537565b9150611914826118ad565b604082019050919050565b60006020820190508181036000830152611938816118fc565b9050919050565b7f4e487b7100000000000000000000000000000000000000000000000000000000600052601160045260246000fd5b6000611979826115e7565b9150611984836115e7565b9250827fffffffffffffffffffffffffffffffffffffffffffffffffffffffffffffffff038211156119b9576119b861193f565b5b828201905092915050565b7f4f776e61626c653a2063616c6c6572206973206e6f7420746865206f776e6572600082015250565b60006119fa602083611537565b9150611a05826119c4565b602082019050919050565b60006020820190508181036000830152611a29816119ed565b9050919050565b7f45524332303a206275726e20616d6f756e74206578636565647320616c6c6f7760008201527f616e636500000000000000000000000000000000000000000000000000000000602082015250565b6000611a8c602483611537565b9150611a9782611a30565b604082019050919050565b60006020820190508181036000830152611abb81611a7f565b9050919050565b7f45524332303a2064656372656173656420616c6c6f77616e63652062656c6f7760008201527f207a65726f000000000000000000000000000000000000000000000000000000602082015250565b6000611b1e602583611537565b9150611b2982611ac2565b604082019050919050565b60006020820190508181036000830152611b4d81611b11565b9050919050565b7f4f776e61626c653a206e6577206f776e657220697320746865207a65726f206160008201527f6464726573730000000000000000000000000000000000000000000000000000602082015250565b6000611bb0602683611537565b9150611bbb82611b54565b604082019050919050565b60006020820190508181036000830152611bdf81611ba3565b9050919050565b7f45524332303a206275726e2066726f6d20746865207a65726f2061646472657360008201527f7300000000000000000000000000000000000000000000000000000000000000602082015250565b6000611c42602183611537565b9150611c4d82611be6565b604082019050919050565b60006020820190508181036000830152611c7181611c35565b9050919050565b7f45524332303a206275726e20616d6f756e7420657863656564732062616c616e60008201527f6365000000000000000000000000000000000000000000000000000000000000602082015250565b6000611cd4602283611537565b9150611cdf82611c78565b604082019050919050565b60006020820190508181036000830152611d0381611cc7565b9050919050565b6000611d15826115e7565b9150611d20836115e7565b925082821015611d3357611d3261193f565b5b828203905092915050565b7f45524332303a20617070726f76652066726f6d20746865207a65726f2061646460008201527f7265737300000000000000000000000000000000000000000000000000000000602082015250565b6000611d9a602483611537565b9150611da582611d3e565b604082019050919050565b60006020820190508181036000830152611dc981611d8d565b9050919050565b7f45524332303a20617070726f766520746f20746865207a65726f20616464726560008201527f7373000000000000000000000000000000000000000000000000000000000000602082015250565b6000611e2c602283611537565b9150611e3782611dd0565b604082019050919050565b60006020820190508181036000830152611e5b81611e1f565b9050919050565b7f45524332303a206d696e7420746f20746865207a65726f206164647265737300600082015250565b6000611e98601f83611537565b9150611ea382611e62565b602082019050919050565b60006020820190508181036000830152611ec781611e8b565b9050919050565b7f45524332303a207472616e736665722066726f6d20746865207a65726f20616460008201527f6472657373000000000000000000000000000000000000000000000000000000602082015250565b6000611f2a602583611537565b9150611f3582611ece565b604082019050919050565b60006020820190508181036000830152611f5981611f1d565b9050919050565b7f45524332303a207472616e7366657220746f20746865207a65726f206164647260008201527f6573730000000000000000000000000000000000000000000000000000000000602082015250565b6000611fbc602383611537565b9150611fc782611f60565b604082019050919050565b60006020820190508181036000830152611feb81611faf565b9050919050565b7f45524332303a207472616e7366657220616d6f756e742065786365656473206260008201527f616c616e63650000000000000000000000000000000000000000000000000000602082015250565b600061204e602683611537565b915061205982611ff2565b604082019050919050565b6000602082019050818103600083015261207d81612041565b905091905056fea26469706673582212206a9cab8f62602875d87ff91376ba6378a42c25a630a6bd038c50d8cabab322d264736f6c634300080a0033",
  "immutableReferences": {
    "73": [
      {
        "length": 32,
        "start": 6799
      },
      {
        "length": 32,
        "start": 6860
      },
      {
        "length": 32,
        "start": 10558
      },
      {
        "length": 32,
        "start": 12615
      }
    ],
    "75": [
      {
        "length": 32,
        "start": 8437
      },
      {
        "length": 32,
        "start": 12675
      }
    ]
  },
  "source": "pragma solidity ^0.8.4;\n\n// SPDX-License-Identifier: MIT\n\nimport \"@openzeppelin/contracts/access/Ownable.sol\";\nimport \"@openzeppelin/contracts/token/ERC20/ERC20.sol\";\nimport \"./Token.sol\";\nimport \"@chainlink/contracts/src/v0.8/VRFConsumerBase.sol\";\n\ncontract backend is Ownable, VRFConsumerBase {\n    mapping (address => mapping(string => bool)) Voted;\n    mapping (string => Proposal) ProposalInfo;\n    mapping (string => bool) PresenceCheck;\n    mapping (string => uint) ArrayIndex;\n    mapping (address => bool) Members;\n    mapping (address => uint) AmountStaked;\n    mapping (uint => string) UID;\n\n    enum Indicator {Threshold, Quorum, Locktime, ModuleAdded, ModuleRemoved}\n    enum Status {Passed, Failed, InProgress, Removed}\n\n    // Default to WMATIC\n    ERC20 BOND = ERC20(0x86652c1301843B4E06fBfbBDaA6849266fb2b5e7);\n\n    /**\n    WMATIC MAINNET: 0x0d500b1d8e8ef31e21c99d1db9a6444d3adf1270\n    WMATIC TESTNET: 0x86652c1301843B4E06fBfbBDaA6849266fb2b5e7\n     */\n\n    uint uniqueID = 0;\n    uint activeprops;\n    uint threshold; // in base currency\n    uint locktime;\n    uint quorum; // 0 -> 100\n    uint randomResult;\n    uint fee; \n    bytes32 keyHash;\n    DaobaoToken minting;\n    string mediateRandomness; // id of Proposal that is being decided.\n    uint mediateTimestamp; // block.timestamp at decision when randomness is called.\n    bool winnerChosen;\n\n    struct Proposal { // name of proposal will be Proposal ID // CID can be passed as a string\n        string data;\n        uint data1; // for locktime,threshold,quorum.\n        Indicator indicator;\n        uint end;\n        address[] voters;\n        Status status;\n        uint forvotes;\n        uint totalvotes;\n        uint quorumsnapshot;\n    }\n\n    string[] ActiveProposals;\n    string[] LiveProposals;\n    string[] History;\n\n    event StakeSubmitted (address sender);\n    event VoteSubmitted(address sender, string id, bool value);\n    event ProposalAccepted(string id);\n    event ProposalRejected(string id);\n    event ThresholdChanged(uint newThreshold);\n    event QuorumChanged(uint newQuorum);\n    event LocktimeChanged(uint newLocktime);\n    event ModuleAdded(string id);\n    event ModuleRemoved(string id);\n    event Winner(address thewinner);\n\n    constructor(uint _threshold, uint _locktime, uint _quorum, address _bond ) VRFConsumerBase(0x8C7382F9D8f56b33781fE506E897a4F1e2d17255, \n        0x326C977E6efc84E512bB9C30f76E30c160eD06FB) {\n        threshold = _threshold * (10 ** 18); \n        locktime = _locktime;\n        quorum = _quorum / 100;\n        keyHash = 0x6e75b569a01ef56d18cab6a8e71e6600d6ce853834d4a5748b720d06f878b3a4;\n        fee = 0.0001 * 10 ** 18; // 0.0001 LINK\n        minting = new DaobaoToken();\n        BOND = ERC20(_bond);\n    }\n\n        /**\n    MUMBAI TESTNET\n    LINK Token\t0x326C977E6efc84E512bB9C30f76E30c160eD06FB\n    VRF Coordinator\t0x8C7382F9D8f56b33781fE506E897a4F1e2d17255\n    Key Hash\t0x6e75b569a01ef56d18cab6a8e71e6600d6ce853834d4a5748b720d06f878b3a4\n    Fee\t0.0001 LINK\n    \n    it's (coordinator, link token)\n    keyhash\n    fee\n\n    MATIC MAINNET\n    LINK Token\t0xb0897686c545045aFc77CF20eC7A532E3120E0F1\n    VRF Coordinator\t0x3d2341ADb2D31f1c5530cDC622016af293177AE0\n    Key Hash\t0xf86195cf7690c55907b2b611ebb7343a6f649bff128701cc542f0569e2c549da\n    Fee\t0.0001 LINK\n     */\n\n    modifier onlyMember() {\n        require(Members[msg.sender] == true, 'not a member');\n        _;\n    }\n\n    function mintingContract(DaobaoToken _minting) external onlyOwner {\n        minting = _minting;\n    }\n\n    function stake() payable public {\n        require(Members[msg.sender] == false, 'already staked');\n        require(BOND.transferFrom(msg.sender, address(this), threshold), 'transfer required');\n        AmountStaked[msg.sender] = threshold;\n        Members[msg.sender] = true;\n        minting.mintRequest(msg.sender);\n        emit StakeSubmitted(msg.sender);\n    }\n\n    function withdraw() external onlyMember {\n        minting.burnRequest(msg.sender);\n        Members[msg.sender] = false;\n        uint transfervalue = AmountStaked[msg.sender];\n        AmountStaked[msg.sender] = 0;\n        BOND.transfer(msg.sender, transfervalue);\n    }\n\n    function removeIndex(string[] storage arrayname, uint index) internal {\n        for (uint i = index; i < arrayname.length - 1; i++) {\n            arrayname[i] = arrayname[i + 1];\n        }\n        arrayname.pop();\n        changeIndex(arrayname, index);\n    }\n\n    function changeIndex(string[] storage arrayname, uint index) internal {\n        for (uint i = index; i < arrayname.length; i++) {\n            ArrayIndex[arrayname[i]] = ArrayIndex[arrayname[i]] - 1;\n        }\n    }\n\n    function submitModuleProposal(string calldata id, string memory _data, Indicator _indicator) external onlyMember {\n        require(activeprops < 3, \"already 3 active proposals\");\n        require(uint8(_indicator) == 3 || uint8(_indicator) == 4, \"invalid indicator\");\n        require(PresenceCheck[id] == false, 'choose new name');\n        PresenceCheck[id] = true;\n        uint _end = block.timestamp + (60 * locktime); // changed to minutes for testing\n        uint _quorumsnapshot = quorum;\n        ActiveProposals.push(id);\n        ProposalInfo[id].data = _data;\n        ProposalInfo[id].quorumsnapshot = _quorumsnapshot;\n        ProposalInfo[id].end = _end;\n        ProposalInfo[id].status = Status.InProgress;\n        ProposalInfo[id].indicator = _indicator;\n        ProposalInfo[id].forvotes = 0;\n        ProposalInfo[id].totalvotes = 0;\n        ArrayIndex[id] = activeprops;\n        activeprops++;\n        UID[uniqueID] = id;\n        uniqueID++;\n    }\n\n    function submitSettingsProposal(string calldata id, uint _data, Indicator _indicator) external onlyMember {\n        require(activeprops < 3, \"already 3 active proposals\");\n        require(uint8(_indicator) == 0 || uint8(_indicator) == 1 || uint8(_indicator) == 2 , \"invalid indicator\");\n        require(PresenceCheck[id] == false, 'choose new name - for quorum, locktime, or threshold: make name unique');\n        PresenceCheck[id] = true;\n        uint _end = block.timestamp + (60 * locktime); // changed\n        uint _quorumsnapshot = quorum;\n        ActiveProposals.push(id);\n        ProposalInfo[id].data1 = _data;\n        ProposalInfo[id].quorumsnapshot = _quorumsnapshot;\n        ProposalInfo[id].end = _end;\n        ProposalInfo[id].status = Status.InProgress;\n        ProposalInfo[id].indicator = _indicator;\n        ProposalInfo[id].forvotes = 0;\n        ProposalInfo[id].totalvotes = 0;\n        ArrayIndex[id] = activeprops;\n        activeprops++;\n        UID[uniqueID] = id;\n        uniqueID++;\n    }\n\n    function vote(string calldata id, bool value) external onlyMember {\n        require(Voted[msg.sender][id] == false, \"already voted\");\n        require(ProposalInfo[id].status == Status.InProgress, \"not in progress\");\n        Voted[msg.sender][id] = true;\n        ProposalInfo[id].totalvotes++;\n        if (value == true) {\n            ProposalInfo[id].forvotes++;\n        }\n        ProposalInfo[id].voters.push(msg.sender);\n        emit VoteSubmitted(msg.sender, id, value);\n    }\n\n    function decideProposal(string calldata id) external onlyMember {\n        require(ProposalInfo[id].status == Status.InProgress, \"not in progress\");\n        require(block.timestamp > ProposalInfo[id].end, \"proposal in progress\");\n        uint forvotes = ProposalInfo[id].forvotes * 100;\n        uint totalvotes = ProposalInfo[id].totalvotes * 100;\n        uint overcome = (totalvotes / 50) * (ProposalInfo[id].quorumsnapshot / 2);\n        if (forvotes > overcome) {\n            ProposalInfo[id].status == Status.Passed;\n            settleProposal(id);\n            History.push(id);\n            emit ProposalAccepted(id);\n            getRandomNumber();\n            mediateRandomness = id;\n            mediateTimestamp = block.timestamp;\n            winnerChosen = false;\n        } else {\n            ProposalInfo[id].status == Status.Failed;\n            emit ProposalRejected(id);\n            History.push(id);\n        }\n        uint index = ArrayIndex[id];\n        removeIndex(ActiveProposals, index);\n        activeprops--;\n    }\n    \n    function settleProposal(string calldata id) internal {\n        if (ProposalInfo[id].indicator == Indicator.Threshold) {\n            threshold = ProposalInfo[id].data1 * (10 ** 18); // valid check\n            emit ThresholdChanged(threshold);\n        }\n        if (ProposalInfo[id].indicator == Indicator.Quorum) {\n            quorum = ProposalInfo[id].data1;\n            emit QuorumChanged(quorum);\n        }\n        if (ProposalInfo[id].indicator == Indicator.Locktime) {\n            locktime = ProposalInfo[id].data1;\n            emit LocktimeChanged(locktime);\n        }\n        if (ProposalInfo[id].indicator == Indicator.ModuleAdded) {\n            LiveProposals.push(id);\n            emit ModuleAdded(id);\n        }\n        if (ProposalInfo[id].indicator == Indicator.ModuleRemoved) {\n            ProposalInfo[id].data = \"none\"; // null?\n            ProposalInfo[id].status = Status.Removed;\n            emit ModuleRemoved(id);\n        }\n    }\n\n    function getRandomNumber() public returns (bytes32 requestID) {\n        require(LINK.balanceOf(address(this)) >= fee, \"Not enough LINK\"); //.1\n        return requestRandomness(keyHash, fee);\n    }\n\n    function fulfillRandomness(bytes32 requestId, uint256 randomness) internal override {\n        randomResult = randomness;\n    }\n\n    function decideWinner() external onlyMember {\n        require(ProposalInfo[mediateRandomness].status == Status.Passed || ProposalInfo[mediateRandomness].status == Status.Failed, \"Proposal in progress\");\n        require(winnerChosen == false, \"winner has already been chosen\");\n        require(block.timestamp > mediateTimestamp + 30, \"wait 30 seconds after deciding proposal\");\n        winnerChosen = true;\n        uint random = randomResult % ProposalInfo[mediateRandomness].totalvotes;\n        address winner = ProposalInfo[mediateRandomness].voters[random];\n        emit Winner(winner);\n    }\n\n    function withdrawLink() external onlyOwner {\n        LINK.transfer(msg.sender, LINK.balanceOf((address(this))));\n    }\n\n    function getLiveProposals() external view returns(string[] memory) {\n        return LiveProposals;\n    }\n\n    function getProposalsHistory() external view returns(string[] memory) {\n        return History;\n    }\n\n    function getActiveProposals() external view returns(string[] memory) {\n        return ActiveProposals;\n    }\n\n    function getVoted(address addy, string calldata str) external view returns(bool) {\n        return Voted[addy][str];\n    }\n\n    function getProposalInfo(string calldata str) external view returns(Proposal memory) {\n        return ProposalInfo[str];\n    }\n\n    function getPresenceCheck(string calldata str) external view returns(bool) {\n        return PresenceCheck[str];\n    }\n\n    function getArrayIndex(string calldata str) external view returns(uint) {\n        return ArrayIndex[str];\n    }\n\n    function getMembers(address addy) external view returns(bool) {\n        return Members[addy];\n    }\n\n    function getAmountStaked(address addy) external view returns(uint) {\n        return AmountStaked[addy];\n    }\n\n    function UIDtoProposalName(uint num) external view returns (string memory) {\n        return UID[num];\n    }\n}",
  "sourcePath": "/Users/pvu/Documents/Projects/Flutter/daobao/contracts/contracts/main.sol",
  "compiler": {
    "name": "solc",
    "version": "0.8.10+commit.fc410830.Emscripten.clang"
  },
  "schemaVersion": "3.4.3",
  "updatedAt": "2021-11-26T06:46:21.936Z",
  "networkType": "ethereum",
  "devdoc": {
    "kind": "dev",
    "methods": {
      "owner()": {
        "details": "Returns the address of the current owner."
      },
      "renounceOwnership()": {
        "details": "Leaves the contract without owner. It will not be possible to call `onlyOwner` functions anymore. Can only be called by the current owner. NOTE: Renouncing ownership will leave the contract without an owner, thereby removing any functionality that is only available to the owner."
      },
      "transferOwnership(address)": {
        "details": "Transfers ownership of the contract to a new account (`newOwner`). Can only be called by the current owner."
      }
    },
    "version": 1
  },
  "userdoc": {
    "kind": "user",
    "methods": {},
    "version": 1
  }
}