{
  "contractName": "Token",
  "abi": [
    {
      "inputs": [
        {
          "internalType": "string",
          "name": "_name",
          "type": "string"
        },
        {
          "internalType": "string",
          "name": "_symbol",
          "type": "string"
        },
        {
          "internalType": "address",
          "name": "_main",
          "type": "address"
        }
      ],
      "stateMutability": "nonpayable",
      "type": "constructor"
    },
    {
      "anonymous": false,
      "inputs": [
        {
          "indexed": true,
          "internalType": "address",
          "name": "owner",
          "type": "address"
        },
        {
          "indexed": true,
          "internalType": "address",
          "name": "spender",
          "type": "address"
        },
        {
          "indexed": false,
          "internalType": "uint256",
          "name": "value",
          "type": "uint256"
        }
      ],
      "name": "Approval",
      "type": "event"
    },
    {
      "anonymous": false,
      "inputs": [
        {
          "indexed": false,
          "internalType": "address",
          "name": "minter",
          "type": "address"
        },
        {
          "indexed": false,
          "internalType": "uint256",
          "name": "value",
          "type": "uint256"
        }
      ],
      "name": "Burned",
      "type": "event"
    },
    {
      "anonymous": false,
      "inputs": [
        {
          "indexed": false,
          "internalType": "address",
          "name": "minter",
          "type": "address"
        },
        {
          "indexed": false,
          "internalType": "uint256",
          "name": "value",
          "type": "uint256"
        }
      ],
      "name": "Minted",
      "type": "event"
    },
    {
      "anonymous": false,
      "inputs": [
        {
          "indexed": false,
          "internalType": "address",
          "name": "account",
          "type": "address"
        }
      ],
      "name": "Paused",
      "type": "event"
    },
    {
      "anonymous": false,
      "inputs": [
        {
          "indexed": true,
          "internalType": "address",
          "name": "from",
          "type": "address"
        },
        {
          "indexed": true,
          "internalType": "address",
          "name": "to",
          "type": "address"
        },
        {
          "indexed": false,
          "internalType": "uint256",
          "name": "value",
          "type": "uint256"
        }
      ],
      "name": "Transfer",
      "type": "event"
    },
    {
      "anonymous": false,
      "inputs": [
        {
          "indexed": false,
          "internalType": "address",
          "name": "account",
          "type": "address"
        }
      ],
      "name": "Unpaused",
      "type": "event"
    },
    {
      "inputs": [
        {
          "internalType": "address",
          "name": "owner",
          "type": "address"
        },
        {
          "internalType": "address",
          "name": "spender",
          "type": "address"
        }
      ],
      "name": "allowance",
      "outputs": [
        {
          "internalType": "uint256",
          "name": "",
          "type": "uint256"
        }
      ],
      "stateMutability": "view",
      "type": "function"
    },
    {
      "inputs": [
        {
          "internalType": "address",
          "name": "spender",
          "type": "address"
        },
        {
          "internalType": "uint256",
          "name": "amount",
          "type": "uint256"
        }
      ],
      "name": "approve",
      "outputs": [
        {
          "internalType": "bool",
          "name": "",
          "type": "bool"
        }
      ],
      "stateMutability": "nonpayable",
      "type": "function"
    },
    {
      "inputs": [
        {
          "internalType": "address",
          "name": "account",
          "type": "address"
        }
      ],
      "name": "balanceOf",
      "outputs": [
        {
          "internalType": "uint256",
          "name": "",
          "type": "uint256"
        }
      ],
      "stateMutability": "view",
      "type": "function"
    },
    {
      "inputs": [
        {
          "internalType": "uint256",
          "name": "amount",
          "type": "uint256"
        }
      ],
      "name": "burn",
      "outputs": [],
      "stateMutability": "nonpayable",
      "type": "function"
    },
    {
      "inputs": [
        {
          "internalType": "address",
          "name": "account",
          "type": "address"
        },
        {
          "internalType": "uint256",
          "name": "amount",
          "type": "uint256"
        }
      ],
      "name": "burnFrom",
      "outputs": [],
      "stateMutability": "nonpayable",
      "type": "function"
    },
    {
      "inputs": [],
      "name": "decimals",
      "outputs": [
        {
          "internalType": "uint8",
          "name": "",
          "type": "uint8"
        }
      ],
      "stateMutability": "view",
      "type": "function"
    },
    {
      "inputs": [
        {
          "internalType": "address",
          "name": "spender",
          "type": "address"
        },
        {
          "internalType": "uint256",
          "name": "subtractedValue",
          "type": "uint256"
        }
      ],
      "name": "decreaseAllowance",
      "outputs": [
        {
          "internalType": "bool",
          "name": "",
          "type": "bool"
        }
      ],
      "stateMutability": "nonpayable",
      "type": "function"
    },
    {
      "inputs": [
        {
          "internalType": "address",
          "name": "spender",
          "type": "address"
        },
        {
          "internalType": "uint256",
          "name": "addedValue",
          "type": "uint256"
        }
      ],
      "name": "increaseAllowance",
      "outputs": [
        {
          "internalType": "bool",
          "name": "",
          "type": "bool"
        }
      ],
      "stateMutability": "nonpayable",
      "type": "function"
    },
    {
      "inputs": [],
      "name": "name",
      "outputs": [
        {
          "internalType": "string",
          "name": "",
          "type": "string"
        }
      ],
      "stateMutability": "view",
      "type": "function"
    },
    {
      "inputs": [],
      "name": "paused",
      "outputs": [
        {
          "internalType": "bool",
          "name": "",
          "type": "bool"
        }
      ],
      "stateMutability": "view",
      "type": "function"
    },
    {
      "inputs": [],
      "name": "symbol",
      "outputs": [
        {
          "internalType": "string",
          "name": "",
          "type": "string"
        }
      ],
      "stateMutability": "view",
      "type": "function"
    },
    {
      "inputs": [],
      "name": "totalSupply",
      "outputs": [
        {
          "internalType": "uint256",
          "name": "",
          "type": "uint256"
        }
      ],
      "stateMutability": "view",
      "type": "function"
    },
    {
      "inputs": [
        {
          "internalType": "address",
          "name": "recipient",
          "type": "address"
        },
        {
          "internalType": "uint256",
          "name": "amount",
          "type": "uint256"
        }
      ],
      "name": "transfer",
      "outputs": [
        {
          "internalType": "bool",
          "name": "",
          "type": "bool"
        }
      ],
      "stateMutability": "nonpayable",
      "type": "function"
    },
    {
      "inputs": [
        {
          "internalType": "address",
          "name": "sender",
          "type": "address"
        },
        {
          "internalType": "address",
          "name": "recipient",
          "type": "address"
        },
        {
          "internalType": "uint256",
          "name": "amount",
          "type": "uint256"
        }
      ],
      "name": "transferFrom",
      "outputs": [
        {
          "internalType": "bool",
          "name": "",
          "type": "bool"
        }
      ],
      "stateMutability": "nonpayable",
      "type": "function"
    },
    {
      "inputs": [
        {
          "internalType": "address",
          "name": "minter",
          "type": "address"
        }
      ],
      "name": "mintRequest",
      "outputs": [],
      "stateMutability": "nonpayable",
      "type": "function"
    },
    {
      "inputs": [
        {
          "internalType": "address",
          "name": "minter",
          "type": "address"
        }
      ],
      "name": "burnRequest",
      "outputs": [],
      "stateMutability": "nonpayable",
      "type": "function"
    }
  ],
  "bytecode": "0x60806040523480156200001157600080fd5b506040516200280138038062002801833981810160405281019062000037919062000639565b828281600390805190602001906200005192919062000387565b5080600490805190602001906200006a92919062000387565b5050506000600560006101000a81548160ff021916908315150217905550620000ca336200009d6200012460201b60201c565b60ff16600a620000ae919062000860565b620f4240620000be9190620008b1565b6200012d60201b60201c565b80600560016101000a81548173ffffffffffffffffffffffffffffffffffffffff021916908373ffffffffffffffffffffffffffffffffffffffff1602179055506200011b620002a660201b60201c565b50505062000b25565b60006012905090565b600073ffffffffffffffffffffffffffffffffffffffff168273ffffffffffffffffffffffffffffffffffffffff161415620001a0576040517f08c379a0000000000000000000000000000000000000000000000000000000008152600401620001979062000973565b60405180910390fd5b620001b4600083836200035e60201b60201c565b8060026000828254620001c8919062000995565b92505081905550806000808473ffffffffffffffffffffffffffffffffffffffff1673ffffffffffffffffffffffffffffffffffffffff16815260200190815260200160002060008282546200021f919062000995565b925050819055508173ffffffffffffffffffffffffffffffffffffffff16600073ffffffffffffffffffffffffffffffffffffffff167fddf252ad1be2c89b69c2b068fc378daa952ba7f163c4a11628f55a4df523b3ef8360405162000286919062000a03565b60405180910390a3620002a2600083836200036360201b60201c565b5050565b620002b66200036860201b60201c565b15620002f9576040517f08c379a0000000000000000000000000000000000000000000000000000000008152600401620002f09062000a70565b60405180910390fd5b6001600560006101000a81548160ff0219169083151502179055507f62e78cea01bee320cd4e420270b5ea74000d11b0c9f74754ebdbfc544b05a258620003456200037f60201b60201c565b60405162000354919062000aa3565b60405180910390a1565b505050565b505050565b6000600560009054906101000a900460ff16905090565b600033905090565b828054620003959062000aef565b90600052602060002090601f016020900481019282620003b9576000855562000405565b82601f10620003d457805160ff191683800117855562000405565b8280016001018555821562000405579182015b8281111562000404578251825591602001919060010190620003e7565b5b50905062000414919062000418565b5090565b5b808211156200043357600081600090555060010162000419565b5090565b6000604051905090565b600080fd5b600080fd5b600080fd5b600080fd5b6000601f19601f8301169050919050565b7f4e487b7100000000000000000000000000000000000000000000000000000000600052604160045260246000fd5b620004a08262000455565b810181811067ffffffffffffffff82111715620004c257620004c162000466565b5b80604052505050565b6000620004d762000437565b9050620004e5828262000495565b919050565b600067ffffffffffffffff82111562000508576200050762000466565b5b620005138262000455565b9050602081019050919050565b60005b838110156200054057808201518184015260208101905062000523565b8381111562000550576000848401525b50505050565b60006200056d6200056784620004ea565b620004cb565b9050828152602081018484840111156200058c576200058b62000450565b5b6200059984828562000520565b509392505050565b600082601f830112620005b957620005b86200044b565b5b8151620005cb84826020860162000556565b91505092915050565b600073ffffffffffffffffffffffffffffffffffffffff82169050919050565b60006200060182620005d4565b9050919050565b6200061381620005f4565b81146200061f57600080fd5b50565b600081519050620006338162000608565b92915050565b60008060006060848603121562000655576200065462000441565b5b600084015167ffffffffffffffff81111562000676576200067562000446565b5b6200068486828701620005a1565b935050602084015167ffffffffffffffff811115620006a857620006a762000446565b5b620006b686828701620005a1565b9250506040620006c98682870162000622565b9150509250925092565b7f4e487b7100000000000000000000000000000000000000000000000000000000600052601160045260246000fd5b60008160011c9050919050565b6000808291508390505b60018511156200076157808604811115620007395762000738620006d3565b5b6001851615620007495780820291505b8081029050620007598562000702565b945062000719565b94509492505050565b6000826200077c57600190506200084f565b816200078c57600090506200084f565b8160018114620007a55760028114620007b057620007e6565b60019150506200084f565b60ff841115620007c557620007c4620006d3565b5b8360020a915084821115620007df57620007de620006d3565b5b506200084f565b5060208310610133831016604e8410600b8410161715620008205782820a9050838111156200081a5762000819620006d3565b5b6200084f565b6200082f84848460016200070f565b92509050818404811115620008495762000848620006d3565b5b81810290505b9392505050565b6000819050919050565b60006200086d8262000856565b91506200087a8362000856565b9250620008a97fffffffffffffffffffffffffffffffffffffffffffffffffffffffffffffffff84846200076a565b905092915050565b6000620008be8262000856565b9150620008cb8362000856565b9250817fffffffffffffffffffffffffffffffffffffffffffffffffffffffffffffffff0483118215151615620009075762000906620006d3565b5b828202905092915050565b600082825260208201905092915050565b7f45524332303a206d696e7420746f20746865207a65726f206164647265737300600082015250565b60006200095b601f8362000912565b9150620009688262000923565b602082019050919050565b600060208201905081810360008301526200098e816200094c565b9050919050565b6000620009a28262000856565b9150620009af8362000856565b9250827fffffffffffffffffffffffffffffffffffffffffffffffffffffffffffffffff03821115620009e757620009e6620006d3565b5b828201905092915050565b620009fd8162000856565b82525050565b600060208201905062000a1a6000830184620009f2565b92915050565b7f5061757361626c653a2070617573656400000000000000000000000000000000600082015250565b600062000a5860108362000912565b915062000a658262000a20565b602082019050919050565b6000602082019050818103600083015262000a8b8162000a49565b9050919050565b62000a9d81620005f4565b82525050565b600060208201905062000aba600083018462000a92565b92915050565b7f4e487b7100000000000000000000000000000000000000000000000000000000600052602260045260246000fd5b6000600282049050600182168062000b0857607f821691505b6020821081141562000b1f5762000b1e62000ac0565b5b50919050565b611ccc8062000b356000396000f3fe608060405234801561001057600080fd5b50600436106101005760003560e01c806342966c681161009757806395d89b411161006657806395d89b41146102ad578063a457c2d7146102cb578063a9059cbb146102fb578063dd62ed3e1461032b57610100565b806342966c68146102275780635c975abb1461024357806370a082311461026157806379cc67901461029157610100565b806318160ddd116100d357806318160ddd1461018b57806323b872dd146101a9578063313ce567146101d957806339509351146101f757610100565b80630481b7c81461010557806306fdde0314610121578063095ea7b31461013f5780631066c7b01461016f575b600080fd5b61011f600480360381019061011a919061122a565b61035b565b005b61012961040b565b60405161013691906112f0565b60405180910390f35b61015960048036038101906101549190611348565b61049d565b60405161016691906113a3565b60405180910390f35b6101896004803603810190610184919061122a565b6104bb565b005b61019361056b565b6040516101a091906113cd565b60405180910390f35b6101c360048036038101906101be91906113e8565b610575565b6040516101d091906113a3565b60405180910390f35b6101e161066d565b6040516101ee9190611457565b60405180910390f35b610211600480360381019061020c9190611348565b610676565b60405161021e91906113a3565b60405180910390f35b610241600480360381019061023c9190611472565b610722565b005b61024b610736565b60405161025891906113a3565b60405180910390f35b61027b6004803603810190610276919061122a565b61074d565b60405161028891906113cd565b60405180910390f35b6102ab60048036038101906102a69190611348565b610795565b005b6102b5610810565b6040516102c291906112f0565b60405180910390f35b6102e560048036038101906102e09190611348565b6108a2565b6040516102f291906113a3565b60405180910390f35b61031560048036038101906103109190611348565b61098d565b60405161032291906113a3565b60405180910390f35b6103456004803603810190610340919061149f565b6109ab565b60405161035291906113cd565b60405180910390f35b600560019054906101000a900473ffffffffffffffffffffffffffffffffffffffff1673ffffffffffffffffffffffffffffffffffffffff163373ffffffffffffffffffffffffffffffffffffffff16146103b557600080fd5b6103c781670de0b6b3a7640000610a32565b7f696de425f79f4a40bc6d2122ca50507f0efbeabbff86a84871b7196ab8ea8df781670de0b6b3a7640000604051610400929190611533565b60405180910390a150565b60606003805461041a9061158b565b80601f01602080910402602001604051908101604052809291908181526020018280546104469061158b565b80156104935780601f1061046857610100808354040283529160200191610493565b820191906000526020600020905b81548152906001019060200180831161047657829003601f168201915b5050505050905090565b60006104b16104aa610c09565b8484610c11565b6001905092915050565b600560019054906101000a900473ffffffffffffffffffffffffffffffffffffffff1673ffffffffffffffffffffffffffffffffffffffff163373ffffffffffffffffffffffffffffffffffffffff161461051557600080fd5b61052781670de0b6b3a7640000610ddc565b7f30385c845b448a36257a6a1716e6ad2e1bc2cbe333cde1e69fe849ad6511adfe81670de0b6b3a7640000604051610560929190611533565b60405180910390a150565b6000600254905090565b6000610582848484610f3c565b6000600160008673ffffffffffffffffffffffffffffffffffffffff1673ffffffffffffffffffffffffffffffffffffffff16815260200190815260200160002060006105cd610c09565b73ffffffffffffffffffffffffffffffffffffffff1673ffffffffffffffffffffffffffffffffffffffff1681526020019081526020016000205490508281101561064d576040517f08c379a00000000000000000000000000000000000000000000000000000000081526004016106449061162f565b60405180910390fd5b61066185610659610c09565b858403610c11565b60019150509392505050565b60006012905090565b6000610718610683610c09565b848460016000610691610c09565b73ffffffffffffffffffffffffffffffffffffffff1673ffffffffffffffffffffffffffffffffffffffff16815260200190815260200160002060008873ffffffffffffffffffffffffffffffffffffffff1673ffffffffffffffffffffffffffffffffffffffff16815260200190815260200160002054610713919061167e565b610c11565b6001905092915050565b61073361072d610c09565b82610a32565b50565b6000600560009054906101000a900460ff16905090565b60008060008373ffffffffffffffffffffffffffffffffffffffff1673ffffffffffffffffffffffffffffffffffffffff168152602001908152602001600020549050919050565b60006107a8836107a3610c09565b6109ab565b9050818110156107ed576040517f08c379a00000000000000000000000000000000000000000000000000000000081526004016107e490611746565b60405180910390fd5b610801836107f9610c09565b848403610c11565b61080b8383610a32565b505050565b60606004805461081f9061158b565b80601f016020809104026020016040519081016040528092919081815260200182805461084b9061158b565b80156108985780601f1061086d57610100808354040283529160200191610898565b820191906000526020600020905b81548152906001019060200180831161087b57829003601f168201915b5050505050905090565b600080600160006108b1610c09565b73ffffffffffffffffffffffffffffffffffffffff1673ffffffffffffffffffffffffffffffffffffffff16815260200190815260200160002060008573ffffffffffffffffffffffffffffffffffffffff1673ffffffffffffffffffffffffffffffffffffffff1681526020019081526020016000205490508281101561096e576040517f08c379a0000000000000000000000000000000000000000000000000000000008152600401610965906117d8565b60405180910390fd5b610982610979610c09565b85858403610c11565b600191505092915050565b60006109a161099a610c09565b8484610f3c565b6001905092915050565b6000600160008473ffffffffffffffffffffffffffffffffffffffff1673ffffffffffffffffffffffffffffffffffffffff16815260200190815260200160002060008373ffffffffffffffffffffffffffffffffffffffff1673ffffffffffffffffffffffffffffffffffffffff16815260200190815260200160002054905092915050565b600073ffffffffffffffffffffffffffffffffffffffff168273ffffffffffffffffffffffffffffffffffffffff161415610aa2576040517f08c379a0000000000000000000000000000000000000000000000000000000008152600401610a999061186a565b60405180910390fd5b610aae826000836111bd565b60008060008473ffffffffffffffffffffffffffffffffffffffff1673ffffffffffffffffffffffffffffffffffffffff16815260200190815260200160002054905081811015610b34576040517f08c379a0000000000000000000000000000000000000000000000000000000008152600401610b2b906118fc565b60405180910390fd5b8181036000808573ffffffffffffffffffffffffffffffffffffffff1673ffffffffffffffffffffffffffffffffffffffff168152602001908152602001600020819055508160026000828254610b8b919061191c565b92505081905550600073ffffffffffffffffffffffffffffffffffffffff168373ffffffffffffffffffffffffffffffffffffffff167fddf252ad1be2c89b69c2b068fc378daa952ba7f163c4a11628f55a4df523b3ef84604051610bf091906113cd565b60405180910390a3610c04836000846111c2565b505050565b600033905090565b600073ffffffffffffffffffffffffffffffffffffffff168373ffffffffffffffffffffffffffffffffffffffff161415610c81576040517f08c379a0000000000000000000000000000000000000000000000000000000008152600401610c78906119c2565b60405180910390fd5b600073ffffffffffffffffffffffffffffffffffffffff168273ffffffffffffffffffffffffffffffffffffffff161415610cf1576040517f08c379a0000000000000000000000000000000000000000000000000000000008152600401610ce890611a54565b60405180910390fd5b80600160008573ffffffffffffffffffffffffffffffffffffffff1673ffffffffffffffffffffffffffffffffffffffff16815260200190815260200160002060008473ffffffffffffffffffffffffffffffffffffffff1673ffffffffffffffffffffffffffffffffffffffff168152602001908152602001600020819055508173ffffffffffffffffffffffffffffffffffffffff168373ffffffffffffffffffffffffffffffffffffffff167f8c5be1e5ebec7d5bd14f71427d1e84f3dd0314c0f7b2291e5b200ac8c7c3b92583604051610dcf91906113cd565b60405180910390a3505050565b600073ffffffffffffffffffffffffffffffffffffffff168273ffffffffffffffffffffffffffffffffffffffff161415610e4c576040517f08c379a0000000000000000000000000000000000000000000000000000000008152600401610e4390611ac0565b60405180910390fd5b610e58600083836111bd565b8060026000828254610e6a919061167e565b92505081905550806000808473ffffffffffffffffffffffffffffffffffffffff1673ffffffffffffffffffffffffffffffffffffffff1681526020019081526020016000206000828254610ebf919061167e565b925050819055508173ffffffffffffffffffffffffffffffffffffffff16600073ffffffffffffffffffffffffffffffffffffffff167fddf252ad1be2c89b69c2b068fc378daa952ba7f163c4a11628f55a4df523b3ef83604051610f2491906113cd565b60405180910390a3610f38600083836111c2565b5050565b600073ffffffffffffffffffffffffffffffffffffffff168373ffffffffffffffffffffffffffffffffffffffff161415610fac576040517f08c379a0000000000000000000000000000000000000000000000000000000008152600401610fa390611b52565b60405180910390fd5b600073ffffffffffffffffffffffffffffffffffffffff168273ffffffffffffffffffffffffffffffffffffffff16141561101c576040517f08c379a000000000000000000000000000000000000000000000000000000000815260040161101390611be4565b60405180910390fd5b6110278383836111bd565b60008060008573ffffffffffffffffffffffffffffffffffffffff1673ffffffffffffffffffffffffffffffffffffffff168152602001908152602001600020549050818110156110ad576040517f08c379a00000000000000000000000000000000000000000000000000000000081526004016110a490611c76565b60405180910390fd5b8181036000808673ffffffffffffffffffffffffffffffffffffffff1673ffffffffffffffffffffffffffffffffffffffff16815260200190815260200160002081905550816000808573ffffffffffffffffffffffffffffffffffffffff1673ffffffffffffffffffffffffffffffffffffffff1681526020019081526020016000206000828254611140919061167e565b925050819055508273ffffffffffffffffffffffffffffffffffffffff168473ffffffffffffffffffffffffffffffffffffffff167fddf252ad1be2c89b69c2b068fc378daa952ba7f163c4a11628f55a4df523b3ef846040516111a491906113cd565b60405180910390a36111b78484846111c2565b50505050565b505050565b505050565b600080fd5b600073ffffffffffffffffffffffffffffffffffffffff82169050919050565b60006111f7826111cc565b9050919050565b611207816111ec565b811461121257600080fd5b50565b600081359050611224816111fe565b92915050565b6000602082840312156112405761123f6111c7565b5b600061124e84828501611215565b91505092915050565b600081519050919050565b600082825260208201905092915050565b60005b83811015611291578082015181840152602081019050611276565b838111156112a0576000848401525b50505050565b6000601f19601f8301169050919050565b60006112c282611257565b6112cc8185611262565b93506112dc818560208601611273565b6112e5816112a6565b840191505092915050565b6000602082019050818103600083015261130a81846112b7565b905092915050565b6000819050919050565b61132581611312565b811461133057600080fd5b50565b6000813590506113428161131c565b92915050565b6000806040838503121561135f5761135e6111c7565b5b600061136d85828601611215565b925050602061137e85828601611333565b9150509250929050565b60008115159050919050565b61139d81611388565b82525050565b60006020820190506113b86000830184611394565b92915050565b6113c781611312565b82525050565b60006020820190506113e260008301846113be565b92915050565b600080600060608486031215611401576114006111c7565b5b600061140f86828701611215565b935050602061142086828701611215565b925050604061143186828701611333565b9150509250925092565b600060ff82169050919050565b6114518161143b565b82525050565b600060208201905061146c6000830184611448565b92915050565b600060208284031215611488576114876111c7565b5b600061149684828501611333565b91505092915050565b600080604083850312156114b6576114b56111c7565b5b60006114c485828601611215565b92505060206114d585828601611215565b9150509250929050565b6114e8816111ec565b82525050565b6000819050919050565b6000819050919050565b600061151d611518611513846114ee565b6114f8565b611312565b9050919050565b61152d81611502565b82525050565b600060408201905061154860008301856114df565b6115556020830184611524565b9392505050565b7f4e487b7100000000000000000000000000000000000000000000000000000000600052602260045260246000fd5b600060028204905060018216806115a357607f821691505b602082108114156115b7576115b661155c565b5b50919050565b7f45524332303a207472616e7366657220616d6f756e742065786365656473206160008201527f6c6c6f77616e6365000000000000000000000000000000000000000000000000602082015250565b6000611619602883611262565b9150611624826115bd565b604082019050919050565b600060208201905081810360008301526116488161160c565b9050919050565b7f4e487b7100000000000000000000000000000000000000000000000000000000600052601160045260246000fd5b600061168982611312565b915061169483611312565b9250827fffffffffffffffffffffffffffffffffffffffffffffffffffffffffffffffff038211156116c9576116c861164f565b5b828201905092915050565b7f45524332303a206275726e20616d6f756e74206578636565647320616c6c6f7760008201527f616e636500000000000000000000000000000000000000000000000000000000602082015250565b6000611730602483611262565b915061173b826116d4565b604082019050919050565b6000602082019050818103600083015261175f81611723565b9050919050565b7f45524332303a2064656372656173656420616c6c6f77616e63652062656c6f7760008201527f207a65726f000000000000000000000000000000000000000000000000000000602082015250565b60006117c2602583611262565b91506117cd82611766565b604082019050919050565b600060208201905081810360008301526117f1816117b5565b9050919050565b7f45524332303a206275726e2066726f6d20746865207a65726f2061646472657360008201527f7300000000000000000000000000000000000000000000000000000000000000602082015250565b6000611854602183611262565b915061185f826117f8565b604082019050919050565b6000602082019050818103600083015261188381611847565b9050919050565b7f45524332303a206275726e20616d6f756e7420657863656564732062616c616e60008201527f6365000000000000000000000000000000000000000000000000000000000000602082015250565b60006118e6602283611262565b91506118f18261188a565b604082019050919050565b60006020820190508181036000830152611915816118d9565b9050919050565b600061192782611312565b915061193283611312565b9250828210156119455761194461164f565b5b828203905092915050565b7f45524332303a20617070726f76652066726f6d20746865207a65726f2061646460008201527f7265737300000000000000000000000000000000000000000000000000000000602082015250565b60006119ac602483611262565b91506119b782611950565b604082019050919050565b600060208201905081810360008301526119db8161199f565b9050919050565b7f45524332303a20617070726f766520746f20746865207a65726f20616464726560008201527f7373000000000000000000000000000000000000000000000000000000000000602082015250565b6000611a3e602283611262565b9150611a49826119e2565b604082019050919050565b60006020820190508181036000830152611a6d81611a31565b9050919050565b7f45524332303a206d696e7420746f20746865207a65726f206164647265737300600082015250565b6000611aaa601f83611262565b9150611ab582611a74565b602082019050919050565b60006020820190508181036000830152611ad981611a9d565b9050919050565b7f45524332303a207472616e736665722066726f6d20746865207a65726f20616460008201527f6472657373000000000000000000000000000000000000000000000000000000602082015250565b6000611b3c602583611262565b9150611b4782611ae0565b604082019050919050565b60006020820190508181036000830152611b6b81611b2f565b9050919050565b7f45524332303a207472616e7366657220746f20746865207a65726f206164647260008201527f6573730000000000000000000000000000000000000000000000000000000000602082015250565b6000611bce602383611262565b9150611bd982611b72565b604082019050919050565b60006020820190508181036000830152611bfd81611bc1565b9050919050565b7f45524332303a207472616e7366657220616d6f756e742065786365656473206260008201527f616c616e63650000000000000000000000000000000000000000000000000000602082015250565b6000611c60602683611262565b9150611c6b82611c04565b604082019050919050565b60006020820190508181036000830152611c8f81611c53565b905091905056fea26469706673582212200bf598e139962ece80c2c129efa7c858d49da5206986496ed21b3658c5b335b564736f6c634300080a0033",
  "immutableReferences": {},
  "source": "pragma solidity ^0.8.4;\n\n// SPDX-License-Identifier: MIT\n\nimport \"@openzeppelin/contracts/token/ERC20/ERC20.sol\";\nimport \"@openzeppelin/contracts/token/ERC20/extensions/ERC20Burnable.sol\";\nimport \"@openzeppelin/contracts/security/Pausable.sol\";\n\ncontract Token is ERC20, ERC20Burnable, Pausable {\n    address main;\n\n    event Minted(address minter, uint value);\n    event Burned(address minter, uint value);\n\n    constructor(string memory _name, string memory _symbol, address _main) ERC20(_name, _symbol) Pausable() {\n         _mint(msg.sender, 1000000 * (10 ** uint256(decimals())));\n        main = _main;\n        _pause(); // pauses transfers?\n    }\n\n    function mintRequest(address minter) external {\n        require(msg.sender == main);\n        _mint(minter, 1e18);\n        emit Minted(minter, 1e18);\n    }\n\n    function burnRequest(address minter) external {\n        require(msg.sender == main);\n        _burn(minter, 1e18);\n        emit Burned(minter, 1e18);\n    }\n}",
  "sourcePath": "/Users/pvu/Documents/Projects/Flutter/daobao/contracts/contracts/token.sol",
  "compiler": {
    "name": "solc",
    "version": "0.8.10+commit.fc410830.Emscripten.clang"
  },
  "schemaVersion": "3.4.3",
  "updatedAt": "2021-11-26T06:24:04.102Z",
  "devdoc": {
    "kind": "dev",
    "methods": {
      "allowance(address,address)": {
        "details": "See {IERC20-allowance}."
      },
      "approve(address,uint256)": {
        "details": "See {IERC20-approve}. Requirements: - `spender` cannot be the zero address."
      },
      "balanceOf(address)": {
        "details": "See {IERC20-balanceOf}."
      },
      "burn(uint256)": {
        "details": "Destroys `amount` tokens from the caller. See {ERC20-_burn}."
      },
      "burnFrom(address,uint256)": {
        "details": "Destroys `amount` tokens from `account`, deducting from the caller's allowance. See {ERC20-_burn} and {ERC20-allowance}. Requirements: - the caller must have allowance for ``accounts``'s tokens of at least `amount`."
      },
      "decimals()": {
        "details": "Returns the number of decimals used to get its user representation. For example, if `decimals` equals `2`, a balance of `505` tokens should be displayed to a user as `5.05` (`505 / 10 ** 2`). Tokens usually opt for a value of 18, imitating the relationship between Ether and Wei. This is the value {ERC20} uses, unless this function is overridden; NOTE: This information is only used for _display_ purposes: it in no way affects any of the arithmetic of the contract, including {IERC20-balanceOf} and {IERC20-transfer}."
      },
      "decreaseAllowance(address,uint256)": {
        "details": "Atomically decreases the allowance granted to `spender` by the caller. This is an alternative to {approve} that can be used as a mitigation for problems described in {IERC20-approve}. Emits an {Approval} event indicating the updated allowance. Requirements: - `spender` cannot be the zero address. - `spender` must have allowance for the caller of at least `subtractedValue`."
      },
      "increaseAllowance(address,uint256)": {
        "details": "Atomically increases the allowance granted to `spender` by the caller. This is an alternative to {approve} that can be used as a mitigation for problems described in {IERC20-approve}. Emits an {Approval} event indicating the updated allowance. Requirements: - `spender` cannot be the zero address."
      },
      "name()": {
        "details": "Returns the name of the token."
      },
      "paused()": {
        "details": "Returns true if the contract is paused, and false otherwise."
      },
      "symbol()": {
        "details": "Returns the symbol of the token, usually a shorter version of the name."
      },
      "totalSupply()": {
        "details": "See {IERC20-totalSupply}."
      },
      "transfer(address,uint256)": {
        "details": "See {IERC20-transfer}. Requirements: - `recipient` cannot be the zero address. - the caller must have a balance of at least `amount`."
      },
      "transferFrom(address,address,uint256)": {
        "details": "See {IERC20-transferFrom}. Emits an {Approval} event indicating the updated allowance. This is not required by the EIP. See the note at the beginning of {ERC20}. Requirements: - `sender` and `recipient` cannot be the zero address. - `sender` must have a balance of at least `amount`. - the caller must have allowance for ``sender``'s tokens of at least `amount`."
      }
    },
    "version": 1
  },
  "userdoc": {
    "kind": "user",
    "methods": {},
    "version": 1
  }
}